:020000040800F2
:103000002004002091430008F5400008F740000824
:10301000F9400008FB400008FD40000800000000E7
:103020000000000000000000000000000141000856
:10303000FF400008000000000341000805410008AF
:1030400007410008094100080B4100080D41000834
:103050000F410008114100081341000835410008E4
:1030600057410008594100085B4100085D410008D4
:103070005F410008614100086341000865410008A4
:1030800067410008694100086B4100086D41000874
:103090006F41000871410008734100087541000844
:1030A00077410008794100087B4100087D41000814
:1030B0007F410008094200080B4200080D42000849
:1030C0000F42000811420008134200081542000890
:1030D00017420008194200081B4200081D42000860
:1030E0001F420008214200082342000880B500F07A
:1030F0002CF800F001F8FCE710B53224DFF82403C7
:10310000042100F0F6FA41F2883000F01EFB03E0E3
:103110005CA0042100F032F8DFF80C03042100F079
:10312000E8FA00F0B1F8A04207D08442F0DBDFF803
:10313000FC02042100F022F8EEE7DFF8F40204219B
:1031400000F01CF800F02FF810BD80B500F01EFB59
:1031500001211D2000F045FC00F0A4FC42F2107299
:103160004FF49661022000F01CF900F0FFFC00F023
:1031700085FA00F06FF800F05DF801BD70B504004D
:103180000D000020002C0DD0002605E03000C0B25C
:10319000205C00F02FFA761C30002900C0B2C9B2C2
:1031A0008842F3D370BDF8B5002400E0641C032C02
:1031B0003FDA00251BE03068400030600DE0DFF8AA
:1031C0007472DFF87462316889B2380000F0F2FD81
:1031D00030688028EFD101203060316889B2380032
:1031E00000F0E5FD4FF47A7000F0AFFA6D1C182D79
:1031F000E5DB0027182FD9DADFF83862DFF838521C
:10320000296889B2300000F0D5FD2868012803D074
:1032100028684008286001E080202860296889B279
:10322000300000F0C4FD4FF47A7000F08EFA7F1C7D
:10323000E0E7F1BD80B54FF4FF40ADF8000003209A
:103240008DF8020010208DF8030069467B4800F0DD
:1032500043FD01BD10B57A4C2100012000F092F829
:103260002100022000F08EF8002301220121062017
:1032700000F062F8012301220221072000F05CF82F
:1032800010BD0000555000003EB5002000240EE0A7
:1032900000980A2148430199081803E003240A2CE6
:1032A000F6DB009815F1010F00D1641E641C032C9D
:1032B00041DA03215AA0FFF761FF00F077FC050017
:1032C0004FF4FA7000F041FA15F1010FE7D00B2D21
:1032D00006D1641E002C03D40020694641F8240066
:1032E000281E0A281ED2002C0CD10021022000F03A
:1032F000E9F915F13000C0B200F07CF9684640F8F9
:1033000024500FE0012C0CD10021032000F0DAF949
:1033100015F13000C0B200F06DF9684640F8245055
:1033200000E0641E0A2DBAD1002C00D1641E012CCD
:10333000B4D10A24B3E73EBD7FB50C0015001E00D2
:103340008DF8000000208DF8010000208DF80200AB
:1033500001208DF80300684600F05AFD3100C9B223
:103360002800C0B200F029FD019400208DF808006B
:1033700008208DF8090001208DF80A0001A800F04E
:10338000A5FD7FBD80B50A00ADF8000003208DF8D3
:10339000020004208DF803006946100000F09CFC38
:1033A00001BDFEB50F00160002282ED15FF080444B
:1033B0001C250121012000F022FB781EADF806003B
:1033C0000020ADF80A00701EADF804000020ADF832
:1033D000080001A9200000F0CDFD8DF8005000206C
:1033E0008DF8010000208DF8020001208DF8030007
:1033F000684600F00DFD01220121200000F0D7FDFC
:103400000121200000F0C5FDF7BD032802D10D4CBD
:103410001D25CEE7042802D10B4C1E25C9E7F3E792
:10342000413A0000604300084C4300089C430008F8
:103430007043000800080140000000200010014017
:10344000000C0140000400400008004038B5012194
:10345000082000F0C6FA974CE02020800320A070DE
:103460001020E070944D2100280000F035FCE02190
:10347000280000F09FFC0121042000F0B2FAFF2098
:1034800020800320A0701020E0708C4D21002800C7
:1034900000F022FCFF21280000F089FC31BD000073
:1034A00038B5854C2021200000F084FC8149FF20A4
:1034B0000880032088700420C870804D280000F028
:1034C0000BFCFF21280000F072FCC021200000F05E
:1034D0006EFC00BF00BF00BF00BF00BF00BF00BF49
:1034E00000BF00BF00BF00BF00BF37E08021200049
:1034F00000F060FC00BF00BF00BF00BF00BF00BF06
:1035000000BF00BF00BF00BF00BF00BF00BF00BFC3
:1035100000BF00BF00BF00BF00BF00BF00BF00BFB3
:1035200000BF00BF8021200000F041FC00BF00BFB1
:1035300000BF00BF00BF00BF00BF00BF00BF00BF93
:1035400000BF00BF00BF00BF00BF00BF00BF00BF83
:1035500000BF00BF00BF00BF00BF00BF8021280028
:1035600000F01BFC0028C1D18021200000F022FCCB
:1035700031BD000070B50400FFF792FF4E4D602191
:10358000280000F017FC8021280000F010FC4949B9
:10359000FF200880032088701020C870474E30003C
:1035A00000F09AFBFF21300000F004FCE4B221009F
:1035B00089B2300000F0FBFB00BF00BF00BF00BFBE
:1035C00000BF00BF00BF00BF00BF00BF00BF00BF03
:1035D00000BF00BF00BF00BF00BF00BF00BF00BFF3
:1035E00000BF00BF00BF00BF8021280000F0E2FB49
:1035F00070BD000070B50400FFF752FF2E4D202172
:10360000280000F0D4FB4021280000F0D3FB8021EB
:10361000280000F0CCFB2749FF2008800320887099
:103620001020C870254E300000F056FBFF213000FE
:1036300000F0C0FBE4B2210089B2300000F0B7FB1B
:1036400000BF00BF00BF00BF00BF00BF00BF00BF82
:1036500000BF00BF00BF00BF00BF00BF00BF00BF72
:1036600000BF00BF00BF00BF00BF00BF00BF00BF62
:103670008021280000F09EFB70BD000010B5104CAA
:10368000FFF7E4FE3820FFF775FF0120FFF772FF18
:103690002000441E0028FBD10620FFF76BFF0C2002
:1036A000FFF768FF0220FFF765FF8020FFF762FF4A
:1036B00010BD000004000020000C01400008014083
:1036C0005EA2060080B5C9B2002905D0022906D045
:1036D00003D3032905D006E005E0403003E01430B1
:1036E00001E05430FFE750F08000C0B2FFF742FF26
:1036F00001BD70B504000D00002C0DD0002605E0C2
:103700003000C0B2205CFFF775FF761C3000290046
:10371000C0B2C9B28842F3D370BD0000E0B5012148
:10372000022000F06CF941F61F40ADF802000020C5
:10373000ADF806000920ADF800000020ADF8040047
:103740006946114800F016FC07BD70B504000E4E26
:103750000121300000F01DFC00250AE001213000AD
:1037600000F031FC0028F9D00121300000F034FCD9
:103770006D1C2800210080B289B28842EED300215E
:10378000300000F006FC70BD0004004080B500F081
:1037900035F85FF4803000F064F800F07EF8C0B2D5
:1037A000012824D1102000F02AFC022000F01EFC89
:1037B000002000F0A7F8002000F0B4F84FF480607B
:1037C00000F0A8F85FF4E0115FF4803000F080F8BA
:1037D000012000F086F8392000F01FF90028FAD007
:1037E000022000F082F800F088F80828FBD14FF49E
:1037F00040515FF0006000F056FB01BD0020DFF893
:10380000581208600020DFF8541208601420DFF816
:10381000501208600020DFF84C1208600020DFF82A
:1038200048120860DFF84412086850F00100086090
:10383000DFF83C221368DFF83C02034013600B689A
:10384000DFF8340203400B60086830F48020086021
:10385000106830F4FE0010600020DFF820120860CD
:103860007047DFF808120A6832F480320A600A688A
:1038700032F480220A60B0F5803F03D0B0F5802F8B
:1038800005D009E0086850F48030086004E008685A
:1038900050F4A0200860FFE7704710B5DFF8E04162
:1038A000312000F0BAF82070DFF8D8110868401C09
:1038B00008602078002802D10868FF28EED1312066
:1038C00000F0ABF8002801D0012000E0002010BD7E
:1038D0000022674B1A6832F47C12084310431860C8
:1038E0007047C0B26849086070470021604A11689B
:1038F000890889000843106070475D48006810F02F
:103900000C00704700215A4A116831F0F001084359
:10391000106070470021564A116831F4E061084395
:10392000106070470021524A116831F4605151EA29
:10393000C0011160704710B4002100210021002156
:103940004B4A116811F00C01002904D0042905D05C
:10395000082906D01EE04E4901601DE04C49016077
:103960001AE0136813F470139B0C9B1C116811F47C
:103970008031002903D147494B43036009E01168B6
:10398000890303D543494B43036002E040494B435D
:10399000036001E03E490160116811F0F00109097E
:1039A0003D4B595C0468CC404460116811F4E061FF
:1039B000090A595C4468CC408460116811F4605174
:1039C000C90A595C4368CB40C360116811F4404197
:1039D000890B324A515CC268B2FBF1F1016110BC43
:1039E0007047C9B2002904D01E490A681043086014
:1039F00004E01C490A6832EA000008607047C9B256
:103A0000002904D018490A681043086004E01649E8
:103A10000A6832EA00000860704700210021002196
:103A20000100C9B24909C9B2012902D10F49096887
:103A300006E0022902D11549096801E01849096820
:103A4000C0B210F01F00C140C80701D5012000E03E
:103A50000020C0B2704700000C100240101002405D
:103A600014100240181002401C10024000100240C6
:103A7000041002400000FFF8FFFFF6FE08100240AD
:103A80001800002010000020600042422010024078
:103A900000127A0000093D0080430008B44300088A
:103AA0002410024080B5012144F20400FFF799FF81
:103AB00000F03BF800F003F800F020F801BD10B56D
:103AC00086B04FF4165000900020ADF8040000209E
:103AD000ADF806000020ADF808000020ADF80A009F
:103AE0000C20ADF80C001F4C6946200000F094FA41
:103AF0000121200000F0E2FA06B010BD704770B559
:103B000004000D000CE0174E8021300000F0E8FAB0
:103B10000028F8D0217889B2300000F0DDFA641C6A
:103B20002800451E0028EED170BD1CB54FF4007072
:103B3000ADF8000018208DF8030003208DF8020076
:103B4000094C6946200000F0C7F84FF48060ADF8DA
:103B5000000004208DF803006946200000F0BCF846
:103B600013BD000000380140000801401CB50121D0
:103B70001020FFF736FF0720ADF8000003208DF876
:103B8000020004208DF80300524C6946200000F02A
:103B9000A3F87820ADF8000010208DF803006946E6
:103BA000200000F099F8FFF7B9FD13BD10B5494C9E
:103BB0007821200000F0FEF80821200000F0F7F83E
:103BC0000121200000F0E9F8002801D0012080E068
:103BD0000221200000F0E1F8002801D0022078E066
:103BE0000421200000F0D9F8002801D0032070E063
:103BF0000120FFF7AAFD7821200000F0DBF810215A
:103C0000200000F0D4F80121200000F0C6F80028C0
:103C100001D004205DE00221200000F0BEF8002861
:103C200001D0052055E00421200000F0B6F800285E
:103C300001D006204DE00120FFF787FD782120000C
:103C400000F0B8F82021200000F0B1F80121200098
:103C500000F0A3F8002801D007203AE0022120005C
:103C600000F09BF8002801D0082032E00421200059
:103C700000F093F8002801D009202AE00120FFF786
:103C800064FD7821200000F095F84021200000F02C
:103C90008EF80120FFF759FD0121200000F07DF88A
:103CA000002801D00A2014E00221200000F075F85D
:103CB000002801D000200CE00421200000F06DF865
:103CC000002801D00B2004E00120FFF73EFD5FF04B
:103CD000FF3010BD00100140F0B40022002200228D
:103CE000002200220022CB7813F00F03CA78D206FC
:103CF00001D58A7813430A78120621D00668002479
:103D00001AE0012717FA04F50A882A40AA4212D1BC
:103D1000A2000F259540AE4313FA02F2324316007B
:103D2000CA78282A02D117FA04F24261CA78482ACE
:103D300001D1A7400761641C082CE2D30660002271
:103D40000A88B2F5807F26DB4668002420E0012740
:103D500014F1080517FA05F50A882A40AA4216D177
:103D6000A2000F259540AE4313FA02F2324316002B
:103D7000CA78282A04D114F1080217FA02F2426123
:103D8000CA78482A03D114F1080297400761641CDD
:103D9000082CDCD34660F0BC70470022806889B2F2
:103DA000084201D0012000E00020C0B2704789B273
:103DB0000161704789B24161704710B400220F233E
:103DC00011F00302D2B2920013FA02F20F4B0C0070
:103DD000E4B2A41053F8244034EA02020C00E4B226
:103DE000A41043F824200A00D2B2921053F82240C3
:103DF000C0B211F00302D2B2920090402043C9B287
:103E0000891043F8210010BC7047000008000140F1
:103E100030B400210021002100210F23C1780029A6
:103E200035D02749096811F4E061D1F5E061090A4C
:103E3000D1F10402CB40417811FA02F281780B40B3
:103E40001A431201017811F00301C9B2C9008A4076
:103E5000194C0178891054F82110FF25037813F0CC
:103E60000303DBB2DB0015FA03F399431A400A435C
:103E70000178891044F821200121027812F01F02F4
:103E80009140104A0078401142F8201009E00121C9
:103E9000027812F01F029140064A0078401142F861
:103EA000201030BC7047084A11400843034908609D
:103EB0007047000080E100E000E400E008ED00E071
:103EC0000CED00E000E100E080FFFF1F30B48179DD
:103ED000002927D0234A017951180B6801680B4348
:103EE000017951180B60204B1C6801688C431C60E1
:103EF0001E4C256801688D4325604179102908D141
:103F00001A6801680A431A60216800680143216049
:103F100011E0417951180B6801680B434079121880
:103F2000136008E00F4A017951180B6801688B4350
:103F300000791218136030BC704700210021094934
:103F4000096801400A4A1268024203D0002901D0E0
:103F5000012000E00020C0B27047054908607047AA
:103F60000000000000040140080401400C0401406E
:103F7000140401400A8882854A880285028812F06A
:103F80008F02028002888B88C9880B431A43028003
:103F90007047C9B2002904D0018851F001010180A5
:103FA00004E0028840F2FE310A4002807047D2B23B
:103FB000002A03D082891143818103E0828932EA99
:103FC0000101818170470022008A084201D001204E
:103FD00000E00020C0B27047028A32EA010101828B
:103FE0007047028A32EA01010182704709490A6872
:103FF00012F038020A600A681043086070470549E9
:104000000A6832F010020A600A68104308607047BC
:10401000000000000020024030B585B004000D0013
:104020000020002000200020218A4CF2FF000140E7
:10403000EA88E8890243288A0243688A0243A88AF8
:104040000243114321820020A1894EF6F310014062
:10405000AA8828890243A88902431143A18100202C
:10406000A18A4FF6FF40014068890143A1820020E8
:104070006846FFF760FC1048844201D1039900E0D4
:1040800002991920414328688000B1FBF0F26420B6
:10409000B2FBF0F109010B001B09642000FB1322A5
:1040A000100132306422B0FBF2F010F00F00014337
:1040B000218105B030BD000000380140C9B200299F
:1040C00004D0818951F40051818104E082894DF648
:1040D000FF710A4082817047C905C90D8180704710
:1040E00000220088084201D0012000E00020C0B278
:1040F000704700007047FEE7FEE7FEE7FEE7704707
:1041000070477047704770477047704770477047F7
:10411000704780B50120FFF710FF002809D0072164
:104120003148FFF7ECFC0120304908600120FFF71F
:1041300014FF01BD80B50220FFF7FFFE002809D063
:1041400007212B48FFF7DBFC01202A4908600220E9
:10415000FFF703FF01BD7047704770477047704716
:104160007047704770477047704770477047704797
:10417000704770477047704770477047704780B509
:1041800001215FF08040FFF71EFF01282BD10121A4
:104190005FF08040FFF725FF17480178491C017048
:1041A00001780A2905D115490A78521C0A700021A4
:1041B000017012480178062905D111490A78521C6C
:1041C0000A70002101700E4801780A2905D10D49B5
:1041D0000A78521C0A70002101700A4801780629E9
:1041E00001D10021017001BDA44300080800002096
:1041F000AC4300080C00002017000020160000202F
:104200001500002014000020704770477047704769
:1042100070477047704770477047704770477047E6
:104220007047704730BF704720BF704740BF70472E
:10423000BFF36F8F7047BFF34F8F7047BFF35F8F30
:10424000704701DF7047EFF31480704780F31488E4
:10425000BFF36F8F7047EFF30980704780F30988D1
:104260007047EFF30880704780F30888704772B694
:10427000704762B6704771B6704761B6704780F399
:1042800011887047EFF31280704740BA704700BA48
:10429000704730B5016884684218416802EB5103E9
:1042A000C90703D54C4401E0491C05D19A420AD004
:1042B00012F9011B12F8015B002904F8015BF3D429
:1042C000491EF7D5F2E70C3030BD000010B50749A4
:1042D00079441831064C7C44163404E00A68081D01
:1042E000114488470146A142F8D110BD08000000E2
:1042F000140000009FFFFFFFC00000000800000046
:104300000000002000F00DF8002801D0FFF7DEFFCC
:10431000AFF300800020AFF30080FEF7E7FE00F06F
:1043200002F80120704700F001B800000746384647
:1043300000F002F8FBE7000080B5AFF30080024A0E
:1043400011001820ABBEFBE7260002005075742058
:104350006E756D62657228307E3130302900000044
:10436000215570446F776E2047616D652100000014
:1043700047726174732120596F752077696E21002F
:1043800000000000010203040102030406070809FB
:10439000AFF30080AFF30080FFF7B4FF444F574EF8
:1043A0000000000045585449300A0000455854495F
:0C43B000310A0000020406080080E8004A
:04000005080043911B
:00000001FF
