:020000040800F2
:103000005804002005400008913D0008933D000849
:10301000953D0008973D0008993D0008000000001C
:103020000000000000000000000000009D3D0008BE
:103030009B3D0008000000009F3D0008A13D0008E6
:10304000A33D0008A53D0008A73D0008A93D0008D4
:10305000AB3D0008AD3D0008AF3D0008D13D000884
:10306000F33D0008F53D0008F73D0008F93D000874
:10307000FB3D0008FD3D0008FF3D0008013E000843
:10308000033E0008053E0008073E0008093E000810
:103090000B3E00080D3E00080F3E0008113E0008E0
:1030A000133E0008153E0008173E0008193E0008B0
:1030B0001B3E0008A53E0008A73E0008A93E0008E8
:1030C000AB3E0008AD3E0008AF3E0008B13E000830
:1030D000B33E0008B53E0008B73E0008B93E000800
:1030E000BB3E0008BD3E0008BF3E000880B500F0B2
:1030F00054F80B21DFF8940200F08BF900F001F88E
:10310000F7E77CB532240E21DFF8840200F081F964
:1031100041F2883000F0CBF904E00321DFF87402BB
:1031200000F077F91221DFF8700200F072F900F078
:10313000FFF90500642000F0BAF915F1010FF6D08F
:1031400000F0F6F90600642000F0B1F916F1010F65
:10315000F6D016F130008DF8000015F130008DF832
:10316000010000208DF802000321684600F051F9AB
:103170000A2000FB0655A54207D11021DFF81C02EA
:1031800000F047F900F020F873BDAC42C5DB052123
:10319000DFF80C0200F03DF9C4E780B500F05EFAFC
:1031A00001211D2000F085FB00F006F942F21072AB
:1031B0004FF49661022000F0A9F800F099F900F0B0
:1031C00059F800F048F801BDF8B5002400E0641C8F
:1031D000032C3FDA00251BE03068400030600DE032
:1031E000DFF8C071DFF8C061316889B2380000F0E3
:1031F0002FFC30688028EFD101203060316889B21F
:10320000380000F022FC4FF47A7000F050F96D1C89
:10321000182DE5DB0027182FD9DADFF88861DFF8F1
:103220008851296889B2300000F012FC2868012812
:1032300003D028684008286001E0802028602968C1
:1032400089B2300000F001FC4FF47A7000F02FF9E1
:103250007F1CE0E7F1BD80B5FF20ADF80000032042
:103260008DF8020010208DF8030069464D4800F0EB
:1032700081FB01BD10B54D4C2100012000F037F855
:103280002100022000F033F8002301220121062052
:1032900000F007F8012301220221072000F001F8C5
:1032A00010BD7FB50C0015001E008DF80000002039
:1032B0008DF8010000208DF8020001208DF8030038
:1032C000684600F0F3FB3100C9B22800C0B200F03C
:1032D000C2FB019400208DF8080008208DF8090039
:1032E00001208DF80A0001A800F03EFC7FBD80B5EA
:1032F0000A00ADF8000003208DF8020004208DF8CC
:1033000003006946100000F035FB01BDFEB50F005B
:10331000160002282ED15FF080441C2501210120D7
:1033200000F0D5FA781EADF806000020ADF80A00CE
:10333000701EADF804000020ADF8080001A92000BF
:1033400000F066FC8DF8005000208DF80100002090
:103350008DF8020001208DF80300684600F0A6FBFE
:1033600001220121200000F070FC0121200000F06A
:103370005EFCF7BD032802D10D4C1D25CEE70428C5
:1033800002D10C4C1E25C9E7F3E70000F83F000806
:103390000400002038000020140000202800002035
:1033A0003C0000200008014000000020000C01400B
:1033B000000400400008004080B5012144F20400F0
:1033C00000F077FA00F03BF800F003F800F020F886
:1033D00001BD10B586B04FF4165000900020ADF836
:1033E00004000020ADF806000020ADF80800002021
:1033F000ADF80A000C20ADF80C001F4C6946200007
:1034000000F042FC0121200000F090FC06B010BD4D
:10341000704770B504000D000CE0174E802130009D
:1034200000F096FC0028F8D0217889B2300000F036
:103430008BFC641C2800451E0028EED170BD1CB515
:103440004FF40070ADF8000018208DF80300032041
:103450008DF80200094C6946200000F08BFA4FF409
:103460008060ADF8000004208DF80300694620005C
:1034700000F080FA13BD0000003801400008014050
:10348000E0B50121022000F022FA41F61F40ADF81C
:1034900002000020ADF806000920ADF80000002071
:1034A000ADF804006946114800F0B2FB07BD70B5E5
:1034B00004000E4E0121300000F0B9FB00250AE0A7
:1034C0000121300000F0CDFB0028F9D001213000AF
:1034D00000F0D0FB6D1C2800210080B289B2884228
:1034E000EED30021300000F0A2FB70BD00040040CC
:1034F0001CB50121102000F0DCF90720ADF8000018
:1035000003208DF8020004208DF80300524C694618
:10351000200000F02FFA7820ADF8000010208DF880
:1035200003006946200000F025FAFFF7A9FF13BD4C
:1035300010B5494C7821200000F08AFA08212000BB
:1035400000F083FA0121200000F075FA002801D074
:10355000012080E00221200000F06DFA002801D057
:10356000022078E00421200000F065FA002801D054
:10357000032070E00120FFF79AFF7821200000F07F
:1035800067FA1021200000F060FA0121200000F00D
:1035900052FA002801D004205DE00221200000F052
:1035A0004AFA002801D0052055E00421200000F04F
:1035B00042FA002801D006204DE00120FFF777FFF6
:1035C0007821200000F044FA2021200000F03DFA8C
:1035D0000121200000F02FFA002801D007203AE056
:1035E0000221200000F027FA002801D0082032E054
:1035F0000421200000F01FFA002801D009202AE051
:103600000120FFF754FF7821200000F021FA40212B
:10361000200000F01AFA0120FFF749FF01212000E5
:1036200000F009FA002801D00A2014E0022120004D
:1036300000F001FA002801D000200CE00421200055
:1036400000F0F9F9002801D00B2004E00120FFF779
:103650002EFF5FF0FF3010BD0010014080B500F07C
:1036600035F85FF4803000F064F800F07EF8C0B206
:10367000012824D1102000F07EFB022000F072FB14
:10368000002000F0A7F8002000F0B4F84FF48060AC
:1036900000F0A8F85FF4E0115FF4803000F080F8EB
:1036A000012000F086F8392000F01FF90028FAD038
:1036B000022000F082F800F088F80828FBD14FF4CF
:1036C00040515FF0006000F03CFA01BD0020DFF8DF
:1036D000581208600020DFF8541208601420DFF848
:1036E000501208600020DFF84C1208600020DFF85C
:1036F00048120860DFF84412086850F001000860C2
:10370000DFF83C221368DFF83C02034013600B68CB
:10371000DFF8340203400B60086830F48020086052
:10372000106830F4FE0010600020DFF820120860FE
:103730007047DFF808120A6832F480320A600A68BB
:1037400032F480220A60B0F5803F03D0B0F5802FBC
:1037500005D009E0086850F48030086004E008688B
:1037600050F4A0200860FFE7704710B5DFF8E04193
:10377000312000F0BAF82070DFF8D8110868401C3A
:1037800008602078002802D10868FF28EED1312097
:1037900000F0ABF8002801D0012000E0002010BDAF
:1037A0000022674B1A6832F47C12084310431860F9
:1037B0007047C0B26849086070470021604A1168CC
:1037C000890889000843106070475D48006810F060
:1037D0000C00704700215A4A116831F0F00108438B
:1037E000106070470021564A116831F4E0610843C7
:1037F000106070470021524A116831F4605151EA5B
:10380000C0011160704710B4002100210021002187
:103810004B4A116811F00C01002904D0042905D08D
:10382000082906D01EE04E4901601DE04C490160A8
:103830001AE0136813F470139B0C9B1C116811F4AD
:103840008031002903D147494B43036009E01168E7
:10385000890303D543494B43036002E040494B438E
:10386000036001E03E490160116811F0F0010909AF
:103870003D4B595C0468CC404460116811F4E06130
:10388000090A595C4468CC408460116811F46051A5
:10389000C90A595C4368CB40C360116811F44041C8
:1038A000890B324A515CC268B2FBF1F1016110BC74
:1038B0007047C9B2002904D01E490A681043086045
:1038C00004E01C490A6832EA000008607047C9B287
:1038D000002904D018490A681043086004E016491A
:1038E0000A6832EA000008607047002100210021C8
:1038F0000100C9B24909C9B2012902D10F490968B9
:1039000006E0022902D11549096801E01849096851
:10391000C0B210F01F00C140C80701D5012000E06F
:103920000020C0B2704700000C100240101002408E
:1039300014100240181002401C10024000100240F7
:10394000041002400000FFF8FFFFF6FE08100240DE
:10395000540000204C000020600042422010024031
:1039600000127A0000093D00E83F000820400008EE
:1039700024100240F0B40022002200220022002283
:103980000022CB7813F00F03CA78D20601D58A78CB
:1039900013430A78120621D0066800241AE0012792
:1039A00017FA04F50A882A40AA4212D1A2000F256C
:1039B0009540AE4313FA02F232431600CA78282A21
:1039C00002D117FA04F24261CA78482A01D1A7400D
:1039D0000761641C082CE2D3066000220A88B2F555
:1039E000807F26DB4668002420E0012714F10805CB
:1039F00017FA05F50A882A40AA4216D1A2000F2517
:103A00009540AE4313FA02F232431600CA78282AD0
:103A100004D114F1080217FA02F24261CA78482A66
:103A200003D114F1080297400761641C082CDCD311
:103A30004660F0BC70470022806889B2084201D01D
:103A4000012000E00020C0B2704789B201617047D8
:103A500089B24161704710B400220F2311F00302B4
:103A6000D2B2920013FA02F20F4B0C00E4B2A4108F
:103A700053F8244034EA02020C00E4B2A41043F8E4
:103A800024200A00D2B2921053F82240C0B211F0A2
:103A90000302D2B2920090402043C9B2891043F889
:103AA000210010BC704700000800014030B4002124
:103AB0000021002100210F23C178002935D027499A
:103AC000096811F4E061D1F5E061090AD1F104025D
:103AD000CB40417811FA02F281780B401A4312016F
:103AE000017811F00301C9B2C9008A40194C01786C
:103AF000891054F82110FF25037813F00303DBB27B
:103B0000DB0015FA03F399431A400A430178891040
:103B100044F821200121027812F01F029140104A3E
:103B20000078401142F8201009E00121027812F0DB
:103B30001F029140064A0078401142F8201030BC24
:103B40007047084A11400843034908607047000065
:103B500080E100E000E400E008ED00E00CED00E0B2
:103B600000E100E080FFFF1F30B48179002927D0F9
:103B7000234A017951180B6801680B4301795118E8
:103B80000B60204B1C6801688C431C601E4C256830
:103B900001688D4325604179102908D11A680168B0
:103BA0000A431A60216800680143216011E04179ED
:103BB00051180B6801680B4340791218136008E034
:103BC0000F4A017951180B6801688B43007912186C
:103BD000136030BC70470021002109490968014089
:103BE0000A4A1268024203D0002901D0012000E0F5
:103BF0000020C0B27047054908607047000000000F
:103C000000040140080401400C0401401404014078
:103C10000A8882854A880285028812F08F02028013
:103C200002888B88C9880B431A4302807047C9B247
:103C3000002904D0018851F00101018004E00288CC
:103C400040F2FE310A4002807047D2B2002A03D00F
:103C500082891143818103E0828932EA01018181F5
:103C600070470022008A084201D0012000E00020B5
:103C7000C0B27047028A32EA010101827047028AAB
:103C800032EA01010182704730B585B004000D00B1
:103C90000020002000200020218A4CF2FF0001407B
:103CA000EA88E8890243288A0243688A0243A88A8C
:103CB0000243114321820020A1894EF6F3100140F6
:103CC000AA8828890243A88902431143A1810020C0
:103CD000A18A4FF6FF40014068890143A18200207C
:103CE0006846FFF790FD1048844201D1039900E037
:103CF00002991920414328688000B1FBF0F264204A
:103D0000B2FBF0F109010B001B09642000FB132238
:103D1000100132306422B0FBF2F010F00F000143CA
:103D2000218105B030BD000000380140C9B2002932
:103D300004D0818951F40051818104E082894DF6DB
:103D4000FF710A4082817047C905C90D81807047A3
:103D500000220088084201D0012000E00020C0B20B
:103D60007047000009490A6812F038020A600A68C0
:103D700010430860704705490A6832F010020A6073
:103D80000A681043086070470000000000200240ED
:103D90007047FEE7FEE7FEE7FEE7704770477047B3
:103DA000704770477047704770477047704780B5DD
:103DB0000120FFF710FF002809D007213148FFF745
:103DC00028FB0120304908600120FFF714FF01BDE6
:103DD00080B50220FFF7FFFE002809D007212B48FD
:103DE000FFF717FB01202A4908600220FFF703FFB5
:103DF00001BD704770477047704770477047704704
:103E000070477047704770477047704770477047FA
:103E10007047704770477047704780B501215FF069
:103E20008040FFF71EFF01282BD101215FF0804069
:103E3000FFF725FF17480178491C017001780A290E
:103E400005D115490A78521C0A70002101701248E8
:103E50000178062905D111490A78521C0A700021FF
:103E600001700E4801780A2905D10D490A78521CC3
:103E70000A70002101700A480178062901D1002149
:103E8000017001BD104000084400002018400008E7
:103E90004800002053000020520000205100002064
:103EA0005000002070477047704770477047704758
:103EB000704770477047704770477047704770474A
:103EC00030BF704720BF704740BF7047BFF36F8F50
:103ED0007047BFF34F8F7047BFF35F8F704701DFAD
:103EE0007047EFF31480704780F31488BFF36F8F2F
:103EF0007047EFF30980704780F309887047EFF34C
:103F00000880704780F30888704772B6704762B6C1
:103F1000704771B6704761B6704780F3118870477B
:103F2000EFF31280704740BA704700BA704730B55F
:103F3000016884684218416802EB5103C90703D540
:103F40004C4401E0491C05D19A420AD012F9011BE8
:103F500012F8015B002904F8015BF3D4491EF7D580
:103F6000F2E70C3030BD000010B507497944183134
:103F7000064C7C44163404E00A68081D1144884746
:103F80000146A142F8D110BD080000001400000055
:103F90009FFFFFFF9000000086000000000000204F
:103FA00000F00DF8002801D0FFF7DEFFAFF300802E
:103FB0000020AFF30080FFF799F800F002F801202D
:103FC000704700F001B800000746384600F002F8DC
:103FD000FBE7000080B5AFF30080024A1100182013
:103FE000ABBEFBE726000200000000000102030454
:103FF000010203040607080947616D655374617285
:10400000740A0000AFF30080AFF30080FFF7C8FF31
:1040100045585449300A000045585449310A0000B7
:10402000020406080080FD000C215570446F776E75
:104030002047616D6521FD0010507574206E756D0F
:1040400062657228307E31303029FD001747726179
:1040500074732120596F752077696E2100555000C7
:0740600000444F574EEB0036
:0400000508004005AA
:00000001FF
