:020000040800F2
:10300000180500209D3A00083D3800083F380008A8
:103010004138000843380008453800080000000027
:103020000000000000000000000000004938000817
:1030300047380008000000004B3800084D380008F1
:103040004F38000851380008533800085538000838
:1030500057380008593800085B3800085D38000808
:103060005F380008613800086338000865380008D8
:1030700067380008693800086B3800086D380008A8
:103080006F38000871380008733800087538000878
:1030900077380008793800087B3800087D38000848
:1030A0007F38000881380008833800088538000818
:1030B000873800080139000803390008053900087D
:1030C00007390008093900080B3900080D390008D4
:1030D0000F390008113900081339000815390008A4
:1030E00017390008193900081B3900080020DFF8DB
:1030F0003C1208600020DFF8381208601420DFF866
:10310000341208600020DFF8301208600020DFF879
:103110002C120860DFF82812086850F001000860DF
:10312000DFF820221368DFF82002034013600B68E9
:10313000DFF8180203400B60086830F48020086054
:10314000106830F4FE0010600020DFF80412086000
:103150007047DFF8EC110A6832F480320A600A68BE
:1031600032F480220A60B0F5803F03D0B0F5802FA2
:1031700005D009E0086850F48030086004E0086871
:1031800050F4A0200860FFE7704710B5DFF8C44195
:10319000312000F0ACF82070DFF8BC110868401C4A
:1031A00008602078002802D10868FF28EED131207D
:1031B00000F09DF8002801D0012000E0002010BDA3
:1031C0000022604B1A6832F47C12084310431860E6
:1031D0007047C0B26149086070470021594A1168C0
:1031E000890889000843106070475648006810F04D
:1031F0000C0070470021534A116831F0F001084378
:103200001060704700214F4A116831F4E0610843B3
:103210001060704700214B4A116831F4605151EA47
:10322000C0011160704710B400210021002100216D
:10323000444A116811F00C01002904D0042905D07A
:10324000082906D01EE0474901601DE0454901609C
:103250001AE0136813F470139B0C9B1C116811F493
:103260008031002903D140494B43036009E01168D4
:10327000890303D53C494B43036002E039494B4382
:10328000036001E037490160116811F0F00109099C
:10329000364B595C0468CC404460116811F4E0611D
:1032A000090A595C4468CC408460116811F460518B
:1032B000C90A595C4368CB40C360116811F44041AE
:1032C000890B2B4A515CC268B2FBF1F1016110BC61
:1032D0007047C9B2002904D017490A681043086032
:1032E00004E015490A6832EA0000086070470021CE
:1032F000002100210100C9B24909C9B2012902D146
:103300000F49096806E0022902D11549096801E060
:1033100018490968C0B210F01F00C140C80701D5A4
:10332000012000E00020C0B2704700000C100240F5
:103330001010024014100240181002401C100240ED
:1033400000100240041002400000FFF8FFFFF6FEEC
:1033500008100240140100200C01002060004242CD
:103360002010024000127A0000093D008C3A00084B
:10337000A83A00082410024018B599B000F0D2F81D
:1033800000F01CF868465A49642200F003F906214F
:10339000684600F067F806E056480168564800F0B5
:1033A00061F800202060554C20680028F4D100F01E
:1033B0004EF80028F7D000F06BF8F4E780B5012153
:1033C00044F20400FFF785FF00F005F800F01FF855
:1033D00000F03CF801BD1CB54FF40070ADF80000E2
:1033E00018208DF8030003208DF80200444C694634
:1033F000200000F02FF94FF48060ADF800000420A9
:103400008DF803006946200000F024F913BD10B5C3
:1034100086B04FF4165000900020ADF80400002054
:10342000ADF806000020ADF808000020ADF80A0055
:103430000C20ADF80C00334C6946200000F06CF90C
:103440000121200000F0BAF906B010BD704780B528
:1034500020212C4800F0C8F9002801D0012000E00C
:10346000002002BD70B504000D000CE0254E802147
:10347000300000F0B9F90028F8D0217889B2300086
:1034800000F0AAF9641C2800451E0028EED170BD8A
:1034900038B51C4800F0A4F90100C9B20D2903D0C9
:1034A0000100C9B20A2915D1174C206800281DD087
:1034B000114D22681549280000F02AF800202168E3
:1034C000685401200D49086020680A4908600020FE
:1034D00020600BE00C490A68802A01D100220A60B2
:1034E0000A4A0B68D0540868401C086031BD0000CF
:1034F000A839000808010020000000200001002079
:103500000008014000380140040100208000002034
:1035100010B4002302E0CC5CC4545B1C9342FADB81
:1035200010BC704780B5FFF7E1FD5FF48030FFF716
:1035300010FEFFF72AFEC0B2012824D1102000F0AF
:1035400066F9022000F05AF90020FFF753FE002030
:10355000FFF760FE4FF48060FFF754FE5FF4E01168
:103560005FF48030FFF72CFE0120FFF732FE392098
:10357000FFF7BDFE0028FAD00220FFF72EFEFFF76E
:1035800034FE0828FBD14FF440515FF0006000F09A
:103590004BF901BD103A07D330B4B1E83810103AF6
:1035A000A0E83810F9D230BC530724BFB1E80810A6
:1035B000A0E8081044BF51F8043B40F8043BD20790
:1035C00024BF31F8022B20F8022B44BF0B78037084
:1035D0007047121F17D35B0009D151F8043B20F844
:1035E000023B1B0C121F20F8023BF6D20BE051F8F5
:1035F000043B00F8013B1B0A20F8023B1B0C121F86
:1036000000F8013BF3D238BF121D521E24BF11F83F
:10361000013B00F8013BF8D8704730B4002513E0B7
:1036200050F8042BD30744BFA9F101039A18091FCE
:10363000042942F8045BFAD213468C0744BF158074
:103640009B1CC90748BF1D7050F8041B0029E7D117
:1036500030BC7047F0B40022002200220022002279
:103660000022CB7813F00F03CA78D20601D58A78EE
:1036700013430A78120621D0066800241AE00127B5
:1036800017FA04F50A882A40AA4212D1A2000F258F
:103690009540AE4313FA02F232431600CA78282A44
:1036A00002D117FA04F24261CA78482A01D1A74030
:1036B0000761641C082CE2D3066000220A88B2F578
:1036C000807F26DB4668002420E0012714F10805EE
:1036D00017FA05F50A882A40AA4216D1A2000F253A
:1036E0009540AE4313FA02F232431600CA78282AF4
:1036F00004D114F1080217FA02F24261CA78482A8A
:1037000003D114F1080297400761641C082CDCD334
:103710004660F0BC7047000030B585B004000D0075
:103720000020002000200020218A4CF2FF000140F0
:10373000EA88E8890243288A0243688A0243A88A01
:103740000243114321820020A1894EF6F31001406B
:10375000AA8828890243A88902431143A181002035
:10376000A18A4FF6FF40014068890143A1820020F1
:103770006846FFF758FD1048844201D1039900E0E4
:1037800002991920414328688000B1FBF0F26420BF
:10379000B2FBF0F109010B001B09642000FB1322AE
:1037A000100132306422B0FBF2F010F00F00014340
:1037B000218105B030BD000000380140C9B20029A8
:1037C00004D0818951F40051818104E082894DF651
:1037D000FF710A4082817047C905C90D8180704719
:1037E0008088C005C00D704700220088084201D0C3
:1037F000012000E00020C0B27047000009490A68BB
:1038000012F038020A600A681043086070470549E0
:103810000A6832F010020A600A68104308607047B4
:103820000000000000200240034A11400843014903
:103830000860704708ED00E080FFFF1F7047FEE75B
:10384000FEE7FEE7FEE77047704770477047704736
:1038500070477047704770477047704770477047B0
:1038600070477047704770477047704770477047A0
:103870007047704770477047704770477047704790
:1038800070477047704780B501215FF0804000F0BD
:1038900045F801282BD101215FF0804000F047F866
:1038A00013480178491C017001780A2905D1114992
:1038B0000A78521C0A70002101700E48017806290E
:1038C00005D10D490A78521C0A70002101700A487E
:1038D00001780A2905D109490A78521C0A70002189
:1038E000017006480178062901D10021017001BD4F
:1038F00013010020120100201101002010010020FE
:1039000070477047704770477047704770477047FF
:103910007047704770477047704770470022008AB1
:10392000084201D0012000E00020C0B27047028AA6
:1039300032EA01010182704730BF704720BF7047F3
:1039400040BF7047BFF36F8F7047BFF34F8F704713
:10395000BFF35F8F704701DF7047EFF3148070474C
:1039600080F31488BFF36F8F7047EFF309807047BF
:1039700080F309887047EFF30880704780F3088868
:10398000704772B6704762B6704771B6704761B6DD
:10399000704780F311887047EFF31280704740BA88
:1039A000704700BA7047000053746172740A0000D7
:1039B0000000000000000000000000000000000007
:1039C00000000000000000000000000000000000F7
:1039D00000000000000000000000000000000000E7
:1039E00000000000000000000000000000000000D7
:1039F00000000000000000000000000000000000C7
:103A000000000000000000000000000010B50749A1
:103A100079441831064C7C44163404E00A68081DC9
:103A2000114488470146A142F8D110BD08000000AA
:103A300014000000E7FBFFFF180100000000002059
:103A40000000000000F00DF8002801D0FFF7DEFFB5
:103A5000AFF300800020AFF30080FFF78DFC00F093
:103A600002F80120704700F001B800000746384610
:103A700000F002F8FBE7000080B5AFF30080024AD7
:103A800011001820ABBEFBE726000200000000007A
:103A9000010203040102030406070809AFF30080D2
:0C3AA000AFF30080FFF7CEFF0204060821
:0400000508003A9D18
:00000001FF
