:020000040800F2
:10300000300C00200D430008194000081B40000848
:103010001D4000081F40000821400008000000007B
:103020000000000000000000000000002540000833
:103030002340000800000000274000082940000845
:103040002B4000082D4000082F40000831400008A8
:103050003340000835400008374000085940000858
:103060007F40000881400008834000088540000838
:1030700087400008894000088B4000088D40000808
:103080008F400008914000089340000895400008D8
:1030900097400008994000089B4000089D400008A8
:1030A0009F400008A1400008A3400008A540000878
:1030B000A7400008314100083341000835410008AD
:1030C00037410008394100083B4100083D410008F4
:1030D0003F410008414100084341000845410008C4
:1030E00047410008494100084B41000880B500F005
:1030F0007BF901211D2000F0A2FA00F001FB42F251
:1031000010724FF49661022000F0FAF800F0ACFB68
:1031100000F0E4FC00F003F800F01AF8FCE710B54A
:10312000974C2100802000F0DCF821004FF48070E3
:1031300000F0D7F8072302228021062000F0ABF828
:10314000082302224FF48071072000F0A4F810BD7C
:10315000F8B521218B4800F0E5FC09218A4800F0F0
:1031600007FB40F2DC54200000F007FD0C218748EB
:1031700000F0D8FC0721864800F0FAFA200000F0A1
:10318000FCFC0024FFE7142C2EDA5025814E502140
:1031900005FB04F0304400F0C5FC07217E4800F038
:1031A000E7FA41F28837380000F0E7FC1C217B4841
:1031B00000F0B8FC0B217A4800F0DAFA380000F091
:1031C000DCFC78490868002827D1502105FB04F56C
:1031D00006EB050000F0A6FC0D21734800F0C8FACC
:1031E000380000F0CAFCCEE71721704800F09AFCC6
:1031F00006216F4800F0BCFA3B216E4800F092FCBB
:1032000006216D4800F0B4FA41F2883000F0B5FCB8
:103210006A480068002818D017E0002008600D21D7
:10322000674800F0A5FA00F011F8082265496648E1
:1032300000F021F80028A6D00921644800F072FCB3
:103240000721634800F094FAD6E7F1BD10B505E018
:1032500000F083FA002801D000F0A0FA5D4C20684D
:103260000028F5D05C4802685C49574800F0F0FA45
:103270000020206010BD30B4002300E05B1C9342AE
:1032800006DAC45CCD5CAC42F8D05FF0FF3000E001
:10329000012030BC70477FB50C0015001E008DF872
:1032A000000000208DF8010000208DF802000120B0
:1032B0008DF80300684600F081FC3100C9B2280097
:1032C000C0B200F04AFD019400208DF808000820EB
:1032D0008DF8090001208DF80A0001A800F068FDB2
:1032E0007FBD80B50A00ADF8000003208DF8020014
:1032F00004208DF803006946100000F0BDFC01BDFC
:10330000FEB50F00160002282ED15FF080441C2568
:103310000121012000F0A1F9781EADF8060000207F
:10332000ADF80A00701EADF804000020ADF80800EA
:1033300001A9200000F090FD8DF8005000208DF8CC
:10334000010000208DF8020001208DF8030068467E
:1033500000F034FC01220121200000F09AFD01213F
:10336000200000F088FDF7BD032802D11C4C1D256C
:10337000CEE7042802D11B4C1E25C9E7F3E7000065
:103380000010014008000020F44200082C0000203A
:1033900018430008B4000020284300085000002013
:1033A0000043000818080020D4420008380000201C
:1033B0002043000878000020384300081C08002043
:1033C000C442000800000020F40700206C00002028
:1033D000304300080C08002014080020F4060020E8
:1033E000000400400008004080B500F035F85FF4AC
:1033F000803000F064F800F07EF8C0B2012824D1DB
:10340000102000F06EFD022000F062FD002000F0B0
:10341000A7F8002000F0B4F84FF4806000F0A8F89E
:103420005FF4E0115FF4803000F080F8012000F0DC
:1034300086F8392000F01FF90028FAD0022000F0A9
:1034400082F800F088F80828FBD14FF440515FF073
:10345000006000F0FEFB01BD0020DFF8581208609C
:103460000020DFF8541208601420DFF850120860C2
:103470000020DFF84C1208600020DFF848120860D6
:10348000DFF84412086850F001000860DFF83C22C1
:103490001368DFF83C02034013600B68DFF8340266
:1034A00003400B60086830F480200860106830F436
:1034B000FE0010600020DFF8201208607047DFF87F
:1034C00008120A6832F480320A600A6832F48022F4
:1034D0000A60B0F5803F03D0B0F5802F05D009E039
:1034E000086850F48030086004E0086850F4A020B8
:1034F0000860FFE7704710B5DFF8E041312000F0C9
:10350000BAF82070DFF8D8110868401C08602078ED
:10351000002802D10868FF28EED1312000F0ABF876
:10352000002801D0012000E0002010BD0022674BE0
:103530001A6832F47C120843104318607047C0B216
:103540006849086070470021604A1168890889004D
:103550000843106070475D48006810F00C00704729
:1035600000215A4A116831F0F00108431060704799
:103570000021564A116831F4E06108431060704739
:103580000021524A116831F4605151EAC0011160C2
:10359000704710B400210021002100214B4A11681E
:1035A00011F00C01002904D0042905D0082906D007
:1035B0001EE04E4901601DE04C4901601AE01368AD
:1035C00013F470139B0C9B1C116811F480310029BB
:1035D00003D147494B43036009E01168890303D5D0
:1035E00043494B43036002E040494B43036001E021
:1035F0003E490160116811F0F00109093D4B595C29
:103600000468CC404460116811F4E061090A595C17
:103610004468CC408460116811F46051C90A595C57
:103620004368CB40C360116811F44041890B324AB2
:10363000515CC268B2FBF1F1016110BC7047C9B2C4
:10364000002904D01E490A681043086004E01C49A0
:103650000A6832EA000008607047C9B2002904D045
:1036600018490A681043086004E016490A6832EAFB
:103670000000086070470021002100210100C9B24C
:103680004909C9B2012902D10F49096806E0022996
:1036900002D11549096801E018490968C0B210F063
:1036A0001F00C140C80701D5012000E00020C0B2C2
:1036B000704700000C10024010100240141002402D
:1036C000181002401C10024000100240041002407A
:1036D0000000FFF8FFFFF6FE081002402808002057
:1036E00020080020600042422010024000127A00B0
:1036F00000093D00E4420008504300082410024045
:1037000080B5012144F20400FFF799FF00F075F83D
:1037100000F003F800F020F801BD10B586B04FF4BA
:10372000165000900020ADF804000020ADF806000F
:103730000020ADF808000020ADF80A000C20ADF81C
:103740000C003C4C6946200000F0D8FB0121200011
:1037500000F026FC06B010BD704780B5202135482A
:1037600000F034FC002801D0012000E0002002BD60
:1037700070B504000D000CE02E4E8021300000F0EA
:1037800025FC0028F8D0217889B2300000F016FC22
:10379000641C2800451E0028EED170BD38B52548B0
:1037A00000F010FC0100C9B20D2903D00100C9B21C
:1037B0000A2915D1204C206800281DD01F4D2268F1
:1037C0001F49280000F044F80020216868540120B7
:1037D0001C49086020681C490860002020600BE03C
:1037E00015490A68802A01D100220A60144A0B6830
:1037F000D0540868401C086031BD1CB54FF40070FF
:10380000ADF8000018208DF8030003208DF80200A9
:103810000E4C6946200000F02FFA4FF48060ADF89E
:10382000000004208DF803006946200000F024FA0F
:1038300013BD00000038014010080020F4060020ED
:10384000740700200C080020140800200008014024
:1038500010B4002302E0CC5CC4545B1C9342FADB3E
:103860000021815410BC70471CB501211020FFF7C6
:10387000E6FE0720ADF8000003208DF802000420CA
:103880008DF80300084C6946200000F0F5F9782017
:10389000ADF8000010208DF803006946200000F00C
:1038A000EBF900F053F913BD0010014038B50121C8
:1038B0000820FFF7C4FE974C072020800320A0704B
:1038C0001020E070944D2100280000F0D5F9072168
:1038D000280000F03FFA01210420FFF7B0FEFF208E
:1038E00020800320A0701020E0708C4D2100280063
:1038F00000F0C2F9FF21280000F029FA31BD0000D4
:1039000038B5854C0121200000F024FA8149FF20C0
:103910000880032088700420C870804D280000F0C3
:10392000ABF9FF21280000F012FA0621200000F078
:103930000EFA00BF00BF00BF00BF00BF00BF00BF46
:1039400000BF00BF00BF00BF00BF37E00421200060
:1039500000F000FA00BF00BF00BF00BF00BF00BF03
:1039600000BF00BF00BF00BF00BF00BF00BF00BF5F
:1039700000BF00BF00BF00BF00BF00BF00BF00BF4F
:1039800000BF00BF0421200000F0E1F900BF00BF2C
:1039900000BF00BF00BF00BF00BF00BF00BF00BF2F
:1039A00000BF00BF00BF00BF00BF00BF00BF00BF1F
:1039B00000BF00BF00BF00BF00BF00BF80212800C4
:1039C00000F0BBF90028C1D10421200000F0C2F9A9
:1039D00031BD000070B50400FFF792FF4E4D03218A
:1039E000280000F0B7F90421280000F0B0F9494997
:1039F000FF200880032088701020C870474E3000D8
:103A000000F03AF9FF21300000F0A4F9E4B22100FF
:103A100089B2300000F09BF900BF00BF00BF00BFBB
:103A200000BF00BF00BF00BF00BF00BF00BF00BF9E
:103A300000BF00BF00BF00BF00BF00BF00BF00BF8E
:103A400000BF00BF00BF00BF0421280000F082F9C2
:103A500070BD000070B50400FFF752FF2E4D01212C
:103A6000280000F074F90221280000F073F9042105
:103A7000280000F06CF92749FF2008800320887097
:103A80001020C870254E300000F0F6F8FF213000FD
:103A900000F060F9E4B2210089B2300000F057F97B
:103AA00000BF00BF00BF00BF00BF00BF00BF00BF1E
:103AB00000BF00BF00BF00BF00BF00BF00BF00BF0E
:103AC00000BF00BF00BF00BF00BF00BF00BF00BFFE
:103AD0000421280000F03EF970BD000010B5104C24
:103AE000FFF7E4FE3820FFF775FF0120FFF772FFB4
:103AF0002000441E0028FBD10620FFF76BFF0C209E
:103B0000FFF768FF0220FFF765FF8020FFF762FFE5
:103B100010BD000008080020000C01400008014012
:103B20005EA2060070B504000D00002C0DD000262A
:103B300005E03000C0B2205CFFF78CFF761C30003F
:103B40002900C0B2C9B28842F3D370BDE0B50121EB
:103B50000220FFF782FD41F61F40ADF80200002071
:103B6000ADF806000920ADF800000020ADF8040013
:103B70006946114800F070F907BD70B504000E4E9B
:103B80000121300000F077F900250AE00121300022
:103B900000F08BF90028F9D00121300000F08EF9F7
:103BA0006D1C2800210080B289B28842EED300212A
:103BB000300000F060F970BD0004004030B4002116
:103BC0000021002100210F23C178002935D0274989
:103BD000096811F4E061D1F5E061090AD1F104024C
:103BE000CB40417811FA02F281780B401A4312015E
:103BF000017811F00301C9B2C9008A40194C01785B
:103C0000891054F82110FF25037813F00303DBB269
:103C1000DB0015FA03F399431A400A43017889102F
:103C200044F821200121027812F01F029140104A2D
:103C30000078401142F8201009E00121027812F0CA
:103C40001F029140064A0078401142F8201030BC13
:103C50007047084A11400843034908607047000054
:103C600080E100E000E400E008ED00E00CED00E0A1
:103C700000E100E080FFFF1FF0B4002200220022DC
:103C8000002200220022CB7813F00F03CA78D2065C
:103C900001D58A7813430A78120621D006680024D9
:103CA0001AE0012717FA04F50A882A40AA4212D11D
:103CB000A2000F259540AE4313FA02F232431600DC
:103CC000CA78282A02D117FA04F24261CA78482A2F
:103CD00001D1A7400761641C082CE2D306600022D2
:103CE0000A88B2F5807F26DB4668002420E00127A1
:103CF00014F1080517FA05F50A882A40AA4216D1D8
:103D0000A2000F259540AE4313FA02F2324316008B
:103D1000CA78282A04D114F1080217FA02F2426183
:103D2000CA78482A03D114F1080297400761641C3D
:103D3000082CDCD34660F0BC70470022806889B252
:103D4000084201D0012000E00020C0B2704789B2D3
:103D50000161704789B24161704710B400220F239E
:103D600011F00302D2B2920013FA02F20F4B0C00D0
:103D7000E4B2A41053F8244034EA02020C00E4B286
:103D8000A41043F824200A00D2B2921053F8224023
:103D9000C0B211F00302D2B2920090402043C9B2E7
:103DA000891043F8210010BC704700000800014052
:103DB00030B48179002927D0234A017951180B6842
:103DC00001680B43017951180B60204B1C68016896
:103DD0008C431C601E4C256801688D432560417929
:103DE000102908D11A6801680A431A60216800681E
:103DF0000143216011E0417951180B6801680B43C0
:103E000040791218136008E00F4A017951180B68C5
:103E100001688B4300791218136030BC7047002191
:103E200000210949096801400A4A1268024203D088
:103E3000002901D0012000E00020C0B270470549F0
:103E400008607047000000000004014008040140C1
:103E50000C040140140401400A8882854A880285C6
:103E6000028812F08F02028002888B88C9880B4377
:103E70001A4302807047C9B2002904D0018851F06A
:103E80000101018004E0028840F2FE310A40028014
:103E90007047D2B2002A03D082891143818103E0A6
:103EA000828932EA0101818170470022008A08423A
:103EB00001D0012000E00020C0B27047028A32EA3F
:103EC000010101827047028A32EA010101827047D2
:103ED00009490A6812F038020A600A68104308604B
:103EE000704705490A6832F010020A600A681043F8
:103EF00008607047000000000020024030B585B027
:103F000004000D000020002000200020218A4CF237
:103F1000FF000140EA88E8890243288A0243688A50
:103F20000243A88A0243114321820020A1894EF650
:103F3000F3100140AA8828890243A889024311434B
:103F4000A1810020A18A4FF6FF400140688901430A
:103F5000A18200206846FFF71CFB1048844201D173
:103F6000039900E002991920414328688000B1FBC1
:103F7000F0F26420B2FBF0F109010B001B09642090
:103F800000FB1322100132306422B0FBF2F010F07B
:103F90000F000143218105B030BD00000038014011
:103FA000C9B2002904D0818951F40051818104E013
:103FB00082894DF6FF710A4082817047C905C90D9B
:103FC000818070478088C005C00D7047002200883E
:103FD000084201D0012000E00020C0B2704730B498
:103FE000002513E050F8042BD30744BFA9F10103C7
:103FF0009A18091F042942F8045BFAD213468C0769
:1040000044BF15809B1CC90748BF1D7050F8041B96
:104010000029E7D130BC70477047FEE7FEE7FEE7B6
:10402000FEE77047704770477047704770477047AA
:1040300070477047704780B58020FFF7F0FE00287A
:1040400009D007213248FFF793FB0120314908606E
:104050008020FFF7F4FE01BD80B54FF48070FFF7BC
:10406000DEFE00280AD007212B48FFF781FB012044
:104070002A4908604FF48070FFF7E1FE01BD7047E8
:104080007047704770477047704770477047704778
:104090007047704770477047704770477047704768
:1040A00070477047704780B501215FF08040FFF78F
:1040B000FCFE01282BD101215FF08040FFF703FFB8
:1040C00017480178491C017001780A2905D1154962
:1040D0000A78521C0A7000210170124801780629E2
:1040E00005D111490A78521C0A70002101700E484E
:1040F00001780A2905D10D490A78521C0A7000215D
:1041000001700A480178062901D10021017001BD22
:104110004043000818080020484300081C080020FD
:104120002708002026080020250800202408002059
:1041300070477047704770477047704770477047C7
:10414000704770477047704770477047F0B4024639
:10415000106895681318506803EB5004C0071CD50D
:104160004D441AE013F8017B05F8017B491EF9D193
:1041700098B113F8011BC6F38106032E08BF13F88C
:10418000016B01EB06214942801C294405D011F83E
:10419000016B05F8016B401EF9D1A3420ED013F854
:1041A000016B16F0030104BF13F8011BC91C300991
:1041B0000F28DBD113F8010B0F30D7E7F0BC02F169
:1041C0000C00704730BF704720BF704740BF70473A
:1041D000BFF36F8F7047BFF34F8F7047BFF35F8F91
:1041E000704701DF7047EFF31480704780F3148845
:1041F000BFF36F8F7047EFF30980704780F3098832
:104200007047EFF30880704780F30888704772B6F4
:10421000704762B6704771B6704761B6704780F3F9
:1042200011887047EFF31280704740BA704700BAA8
:104230007047000010B5074979441831064C7C449A
:10424000163404E00A68081D114488470146A1425B
:10425000F8D110BD080000002400000083FDFFFF1E
:1042600038010000F406002000000000E1FEFFFF1E
:10427000E4000000AA0500000000002000F00DF896
:10428000002801D0FFF7D6FFAFF300800020AFF386
:104290000080FEF72BFF00F002F80120704700F0CD
:1042A00001B800000746384600F002F8FBE70000BE
:1042B00080B5AFF30080024A11001820ABBEFBE7C7
:1042C000260002004769766520416E737765720AA1
:1042D00000000000416E6F7468657248696E740A70
:1042E00000000000000000000102030401020304BA
:1042F0000607080957656C636F6D650A00000000CA
:10430000416E732F48696E743F0A0000AFF300805E
:10431000AFF30080FFF7B2FF53746172740A0000BC
:104320004661696C0A00000048696E74210A000049
:1043300047726174730A00004F7665720A000000CC
:1043400045585449300A000045585449310A000084
:104350000204060810207261696E626F770057656B
:104360006C636F6D6520746F205477656E74792D62
:104370005175657374696F6E091002697A210001C5
:10438000101C4865726520776520676F2100596FA2
:1043900075206661696C65642E207472792061678E
:1043A00049112610126B6E6F772074686520616E5C
:1043B00073776572202F20736812300A68696E74F3
:1043C00000436F72726563744C1002496620794332
:1043D000200277616E747440076368616C6C656E6F
:1043E000676549100D2C20706C65617365207072D3
:1043F0006573732005F01D2C657420627574746FED
:104400006E2E0000312E2049742069736E277420AF
:10441000616C6976652E0001523250100420756E71
:10442000746F758BF32C626C53A233A024036E203F
:10443000656D6F48F129526234A0F0012F726172EC
:10444000EC2101623550F0072D6265617574696673
:10445000756C551406362E2047656E6572C3140BB5
:10446000792C2069742068617320617263FBF322E8
:104470006170B13237A02145F0072C72656420636A
:104480006F6C6F72A172385040026D616E7951F29B
:104490002A735263392EE51C026469666615031996
:1044A000C418026E756D62EF536F665F155CF00B9A
:1044B0000B747765656E2063756C747572657067D3
:1044C0003130914F696E3C03F22C69F14E3121037A
:1044D000100361707065618A2152100A6F70706FED
:1044E00073697465207369640E326615FB15737504
:1044F000953E3121031227EF2801757261CB21AB64
:104500001DD703F3257274A61E3121031E536D04BB
:10451000780374696D657331136974552401697387
:10452000744652720AF515A6B33134F01E612B049D
:104530001E69C3032A208620032067696674F1F090
:104540000117676F64AE4E3121031E63BC031B620B
:10455000653415321F617228032801696369E3F12C
:1045600020F51E31210334065072696E6369706C48
:104570007D21EB3E673203654E1C026578706CF856
:104580000419EF1802666972730CF004056E20318D
:104590003633376B2E31210335C31D9005113D682D
:1045A00002276974273B1E77B5054C0120736B8881
:1045B000031C0277696C6C3504111B27616658FC7B
:1045C00003016120776869DC049E312103126F5377
:1045D00059C21774684A1505176E6F51192E29CEE6
:1045E000F8050D62792068756D61381E3121032D43
:1045F000200625412002616C736F3B41A5100277B4
:104600006974688634027069656309F40310707216
:1046100069736D50A7323090318851EE11E951DB4A
:0946200021E6F40114696E679CA7
:040000050800430D9F
:00000001FF
