:020000040800F2
:1030000018040020E9410008B93F0008BB3F000850
:10301000BD3F0008BF3F0008C13F0008000000009E
:10302000000000000000000000000000C53F000894
:10303000C33F000800000000C73F0008C93F000868
:10304000CB3F0008CD3F0008CF3F0008D13F00082C
:10305000D33F0008D53F0008D73F0008F93F0008DC
:103060001B4000081D4000081F40000821400008C8
:103070002340000825400008274000082940000898
:103080002B4000082D4000082F4000083140000868
:103090003340000835400008374000083940000838
:1030A0003B4000083D4000083F4000084140000808
:1030B00043400008CD400008CF400008D140000840
:1030C000D3400008D5400008D7400008D940000888
:1030D000DB400008DD400008DF400008E140000858
:1030E000E3400008E5400008E7400008F8B500F0BC
:1030F00055F901211D2000F07CFA00F0DBFA42F2C4
:1031000010724FF49661022000F0F1F800F044FBD9
:1031100000F0CCFC00F05CF880240121042000F0D9
:1031200068FAFF20ADF8000003208DF8020010209F
:103130008DF80300DFF838526946280000F0DAFC09
:10314000002600E0761CB6F57A7F2FDA002713E020
:10315000640007E0210089B2280000F039FD802CCE
:10316000F6D10124210089B2280000F02EFDDFF8FD
:10317000040200F009F97F1C182FEBDB0027182F41
:10318000E0DA210089B2280000F022FD012C01D0F4
:10319000640800E08024210089B2280000F015FDB9
:1031A0004FF47A7000F059FD7F1CE8E734A4032146
:1031B000200000F0ACFA00F022F805000321200006
:1031C00000F0A5FA30352800C0B200F0B6FAEDE7FD
:1031D00010B5694C2100012000F07AF8210002208E
:1031E00000F076F8002301220121062000F04AF8C1
:1031F000012301220221072000F044F810BD3EB552
:10320000002000240FE000980A2148430199081883
:1032100003E003240A2CF6DB0098010015F1010FEE
:1032200000D1641E641C032C29DA00F0D5FA0500D5
:103230004FF4FA7000F011FD0621504800F067FAD3
:1032400015F1010FE6D00B2D06D1641E002C03D41E
:103250000020694641F82400281E0A2806D2022CC4
:1032600003D0684640F8245000E0641E0A2DD1D1F6
:10327000002C00D1641E012CCBD10A24CAE73EBD2C
:10328000496E00007FB50C0015001E008DF800008F
:1032900000208DF8010000208DF8020001208DF83B
:1032A0000300684600F0FAFC3100C9B22800C0B241
:1032B00000F091FC019400208DF8080008208DF8A2
:1032C000090001208DF80A0001A800F045FD7FBD2E
:1032D00080B50A00ADF8000003208DF8020004203C
:1032E0008DF803006946100000F004FC01BDFEB536
:1032F0000F00160002282ED15FF080441C2501210A
:10330000012000F084F9781EADF806000020ADF829
:103310000A00701EADF804000020ADF8080001A9F5
:10332000200000F06DFD8DF8005000208DF80100A8
:1033300000208DF8020001208DF80300684600F09F
:10334000ADFC01220121200000F077FD01212000C9
:1033500000F065FDF7BD032802D1094C1D25CEE71D
:10336000042802D1074C1E25C9E7F3E7000000003E
:1033700000080140FFFF0A00000C0140F441000872
:10338000000400400008004001B402E00098401E24
:10339000009000980028F9D101B0704780B500F086
:1033A00035F85FF4803000F064F800F07EF8C0B2C9
:1033B000012824D1102000F068FD022000F05CFDFF
:1033C000002000F0A7F8002000F0B4F84FF480606F
:1033D00000F0A8F85FF4E0115FF4803000F080F8AE
:1033E000012000F086F8392000F01FF90028FAD0FB
:1033F000022000F082F800F088F80828FBD14FF492
:1034000040515FF0006000F094FC01BD0020DFF847
:10341000581208600020DFF8541208601420DFF80A
:10342000501208600020DFF84C1208600020DFF81E
:1034300048120860DFF84412086850F00100086084
:10344000DFF83C221368DFF83C02034013600B688E
:10345000DFF8340203400B60086830F48020086015
:10346000106830F4FE0010600020DFF820120860C1
:103470007047DFF808120A6832F480320A600A687E
:1034800032F480220A60B0F5803F03D0B0F5802F7F
:1034900005D009E0086850F48030086004E008684E
:1034A00050F4A0200860FFE7704710B5DFF8E04156
:1034B000312000F0BAF82070DFF8D8110868401CFD
:1034C00008602078002802D10868FF28EED131205A
:1034D00000F0ABF8002801D0012000E0002010BD72
:1034E0000022674B1A6832F47C12084310431860BC
:1034F0007047C0B26849086070470021604A11688F
:10350000890889000843106070475D48006810F022
:103510000C00704700215A4A116831F0F00108434D
:10352000106070470021564A116831F4E061084389
:10353000106070470021524A116831F4605151EA1D
:10354000C0011160704710B400210021002100214A
:103550004B4A116811F00C01002904D0042905D050
:10356000082906D01EE04E4901601DE04C4901606B
:103570001AE0136813F470139B0C9B1C116811F470
:103580008031002903D147494B43036009E01168AA
:10359000890303D543494B43036002E040494B4351
:1035A000036001E03E490160116811F0F001090972
:1035B0003D4B595C0468CC404460116811F4E061F3
:1035C000090A595C4468CC408460116811F4605168
:1035D000C90A595C4368CB40C360116811F440418B
:1035E000890B324A515CC268B2FBF1F1016110BC37
:1035F0007047C9B2002904D01E490A681043086008
:1036000004E01C490A6832EA000008607047C9B249
:10361000002904D018490A681043086004E01649DC
:103620000A6832EA0000086070470021002100218A
:103630000100C9B24909C9B2012902D10F4909687B
:1036400006E0022902D11549096801E01849096814
:10365000C0B210F01F00C140C80701D5012000E032
:103660000020C0B2704700000C1002401010024051
:1036700014100240181002401C10024000100240BA
:10368000041002400000FFF8FFFFF6FE08100240A1
:10369000140000200C000020600042422010024074
:1036A00000127A0000093D00D84100080C420008D1
:1036B0002410024080B5012144F20400FFF799FF75
:1036C00000F04AF800F003F800F020F801BD10B552
:1036D00086B04FF4165000900020ADF80400002092
:1036E000ADF806000020ADF808000020ADF80A0093
:1036F0000C20ADF80C00264C6946200000F0D2FBEF
:103700000121200000F020FC06B010BD704770B50C
:1037100004000D000CE01E4E8021300000F026FC5D
:103720000028F8D0217889B2300000F01BFC641C1E
:103730002800451E0028EED170BD10B50100144CC4
:10374000C9B289B2200000F00DFC8021200000F0F9
:103750000DFC0028F9D010BD1CB54FF40070ADF879
:10376000000018208DF8030003208DF80200094C9A
:103770006946200000F0BEF94FF48060ADF800000B
:1037800004208DF803006946200000F0B3F913BD52
:1037900000380140000801401CB501211020FFF74E
:1037A00028FF0720ADF8000003208DF80200042058
:1037B0008DF80300524C6946200000F09BF97820F8
:1037C000ADF8000010208DF803006946200000F0DD
:1037D00091F900F02BFA13BD10B5494C7821200067
:1037E00000F0F6F90821200000F0EFF90121200097
:1037F00000F0E1F9002801D0012080E00221200042
:1038000000F0D9F9002801D0022078E0042120003E
:1038100000F0D1F9002801D0032070E0012000F071
:103820001CFA7821200000F0D3F91021200000F0CC
:10383000CCF90121200000F0BEF9002801D00420BD
:103840005DE00221200000F0B6F9002801D005203B
:1038500055E00421200000F0AEF9002801D0062038
:103860004DE0012000F0F9F97821200000F0B0F9D6
:103870002021200000F0A9F90121200000F09BF98F
:10388000002801D007203AE00221200000F093F93F
:10389000002801D0082032E00421200000F08BF93C
:1038A000002801D009202AE0012000F0D6F9782173
:1038B000200000F08DF94021200000F086F9012061
:1038C00000F0CBF90121200000F075F9002801D0AB
:1038D0000A2014E00221200000F06DF9002801D038
:1038E00000200CE00421200000F065F9002801D040
:1038F0000B2004E0012000F0B0F95FF0FF3010BDB4
:103900000010014038B501210820FFF772FE754C08
:10391000E02020800320A0701020E070724D210074
:10392000280000F0E7F8E021280000F051F901211B
:103930000420FFF75EFEFF2020800320A0701020EF
:10394000E0706A4D2100280000F0D4F8FF21280023
:1039500000F03BF931BD000038B5634C2021200058
:1039600000F036F95F49FF200880032088700420AA
:10397000C8705E4D280000F0BDF8FF21280000F05F
:1039800024F9C021200000F020F900BF00BF00BFD3
:1039900000BF00BF00BF00BF00BF00BF00BF00BF2F
:1039A00000BF37E08021200000F012F900BF00BF07
:1039B00000BF00BF00BF00BF00BF00BF00BF00BF0F
:1039C00000BF00BF00BF00BF00BF00BF00BF00BFFF
:1039D00000BF00BF00BF00BF00BF00BF80212000AC
:1039E00000F0F3F800BF00BF00BF00BF00BF00BF82
:1039F00000BF00BF00BF00BF00BF00BF00BF00BFCF
:103A000000BF00BF00BF00BF00BF00BF00BF00BFBE
:103A100000BF00BF8021280000F0CDF80028C1D1F0
:103A20008021200000F0D4F831BD000070B5040002
:103A3000FFF792FF2C4D6021280000F0C9F880218B
:103A4000280000F0C2F82749FF2008800320887072
:103A50001020C870254E300000F04CF8FF213000D7
:103A600000F0B6F8E4B2210089B2300000F0ADF801
:103A700000BF00BF00BF00BF00BF00BF00BF00BF4E
:103A800000BF00BF00BF00BF00BF00BF00BF00BF3E
:103A900000BF00BF00BF00BF00BF00BF00BF00BF2E
:103AA0008021280000F094F870BD000010B5104C83
:103AB000FFF728FF3820FFF7B9FF0120FFF7B6FF17
:103AC0002000441E0028FBD10620FFF7AFFF0C208A
:103AD000FFF7ACFF0220FFF7A9FF8020FFF7A6FF4A
:103AE00010BD000000000020000C01400008014053
:103AF0005EA20600F0B40022002200220022002272
:103B00000022CB7813F00F03CA78D20601D58A7849
:103B100013430A78120621D0066800241AE0012710
:103B200017FA04F50A882A40AA4212D1A2000F25EA
:103B30009540AE4313FA02F232431600CA78282A9F
:103B400002D117FA04F24261CA78482A01D1A7408B
:103B50000761641C082CE2D3066000220A88B2F5D3
:103B6000807F26DB4668002420E0012714F1080549
:103B700017FA05F50A882A40AA4216D1A2000F2595
:103B80009540AE4313FA02F232431600CA78282A4F
:103B900004D114F1080217FA02F24261CA78482AE5
:103BA00003D114F1080297400761641C082CDCD390
:103BB0004660F0BC70470022806889B2084201D09C
:103BC000012000E00020C0B2704789B20161704757
:103BD00089B24161704710B400220F2311F0030233
:103BE000D2B2920013FA02F20F4B0C00E4B2A4100E
:103BF00053F8244034EA02020C00E4B2A41043F863
:103C000024200A00D2B2921053F82240C0B211F020
:103C10000302D2B2920090402043C9B2891043F807
:103C2000210010BC7047000008000140E0B50121F0
:103C30000220FFF7ECFC41F61F40ADF80200002027
:103C4000ADF806000920ADF800000020ADF8040032
:103C50006946114800F0D4F807BD70B504000E4E57
:103C60000121300000F0DBF800250AE001213000DE
:103C700000F0EFF80028F9D00121300000F0F2F850
:103C80006D1C2800210080B289B28842EED3002149
:103C9000300000F0C4F870BD0004004030B40021D2
:103CA0000021002100210F23C178002935D02749A8
:103CB000096811F4E061D1F5E061090AD1F104026B
:103CC000CB40417811FA02F281780B401A4312017D
:103CD000017811F00301C9B2C9008A40194C01787A
:103CE000891054F82110FF25037813F00303DBB289
:103CF000DB0015FA03F399431A400A43017889104F
:103D000044F821200121027812F01F029140104A4C
:103D10000078401142F8201009E00121027812F0E9
:103D20001F029140064A0078401142F8201030BC32
:103D30007047084A11400843034908607047000073
:103D400080E100E000E400E008ED00E00CED00E0C0
:103D500000E100E080FFFF1F30B48179002927D007
:103D6000234A017951180B6801680B4301795118F6
:103D70000B60204B1C6801688C431C601E4C25683E
:103D800001688D4325604179102908D11A680168BE
:103D90000A431A60216800680143216011E04179FB
:103DA00051180B6801680B4340791218136008E042
:103DB0000F4A017951180B6801688B43007912187A
:103DC000136030BC70470021002109490968014097
:103DD0000A4A1268024203D0002901D0012000E003
:103DE0000020C0B27047054908607047000000001D
:103DF00000040140080401400C0401401404014087
:103E00000A8882854A880285028812F08F02028021
:103E100002888B88C9880B431A4302807047C9B255
:103E2000002904D0018851F00101018004E00288DA
:103E300040F2FE310A4002807047D2B2002A03D01D
:103E400082891143818103E0828932EA0101818103
:103E500070470022008A084201D0012000E00020C3
:103E6000C0B27047028A32EA010101827047028AB9
:103E700032EA01010182704709490A6812F03802EA
:103E80000A600A6810430860704705490A6832F002
:103E900010020A600A6810430860704700000000C2
:103EA0000020024030B585B004000D000020002045
:103EB00000200020218A4CF2FF000140EA88E889B6
:103EC0000243288A0243688A0243A88A02431143B4
:103ED00021820020A1894EF6F3100140AA8828898A
:103EE0000243A88902431143A1810020A18A4FF611
:103EF000FF40014068890143A18200206846FFF726
:103F000022FB1048844201D1039900E00299192054
:103F1000414328688000B1FBF0F26420B2FBF0F16D
:103F200009010B001B09642000FB13221001323031
:103F30006422B0FBF2F010F00F000143218105B0C4
:103F400030BD000000380140C9B2002904D0818989
:103F500051F40051818104E082894DF6FF710A40DD
:103F600082817047C905C90D818070470022008891
:103F7000084201D0012000E00020C0B2704730B4F8
:103F8000002513E050F8042BD30744BFA9F1010327
:103F90009A18091F042942F8045BFAD213468C07C9
:103FA00044BF15809B1CC90748BF1D7050F8041BF7
:103FB0000029E7D130BC70477047FEE7FEE7FEE717
:103FC000FEE770477047704770477047704770470B
:103FD00070477047704780B50120FFF7F4FE002856
:103FE00009D007213148FFF792FB012030490860D2
:103FF0000120FFF7F8FE01BD80B50220FFF7E3FEC8
:10400000002809D007212B48FFF781FB01202A490E
:1040100008600220FFF7E7FE01BD70477047704758
:1040200070477047704770477047704770477047D8
:1040300070477047704770477047704770477047C8
:10404000704780B501215FF08040FFF702FF012833
:104050002BD101215FF08040FFF709FF174801785D
:10406000491C017001780A2905D115490A78521CAA
:104070000A700021017012480178062905D1114902
:104080000A78521C0A70002101700E4801780A2932
:1040900005D10D490A78521C0A70002101700A48A6
:1040A0000178062901D10021017001BDFC41000801
:1040B0000400002004420008080000201300002033
:1040C00012000020110000201000002070477047EF
:1040D0007047704770477047704770477047704728
:1040E000704770477047704730BF704720BF7047B8
:1040F00040BF7047BFF36F8F7047BFF34F8F70475C
:10410000BFF35F8F704701DF7047EFF31480704794
:1041100080F31488BFF36F8F7047EFF30980704707
:1041200080F309887047EFF30880704780F30888B0
:10413000704772B6704762B6704771B6704761B625
:10414000704780F311887047EFF31280704740BAD0
:10415000704700BA7047000010B50749794418311C
:10416000064C7C44163404E00A68081D1144884754
:104170000146A142F8D110BD080000001400000063
:10418000FFFDFFFF180000000000002000000000FD
:1041900000F00DF8002801D0FFF7DEFFAFF300803C
:1041A0000020AFF30080FEF7A1FF00F002F801202D
:1041B000704700F001B800000746384600F002F8EA
:1041C000FBE7000080B5AFF30080024A1100182021
:1041D000ABBEFBE726000200000000000102030462
:1041E0000102030406070809AFF30080AFF3008063
:1041F000FFF7CEFF64656C617900000045585449B3
:10420000300A000045585449310A000002040608EB
:04000005080041E9C5
:00000001FF
