:020000040800F2
:103000001804002011410008E13E0008E33E0008DA
:10301000E53E0008E73E0008E93E00080000000029
:10302000000000000000000000000000ED3E00086D
:10303000EB3E000800000000EF3E0008F13E0008F3
:10304000F33E0008F53E0008F73E0008F93E000890
:10305000FB3E0008FD3E0008FF3E0008213F00083F
:10306000433F0008453F0008473F0008493F00082C
:103070004B3F00084D3F00084F3F0008513F0008FC
:10308000533F0008553F0008573F0008593F0008CC
:103090005B3F00085D3F00085F3F0008613F00089C
:1030A000633F0008653F0008673F0008693F00086C
:1030B0006B3F0008F53F0008F73F0008F93F0008A4
:1030C000FB3F0008FD3F0008FF3F000801400008EB
:1030D00003400008054000080740000809400008B8
:1030E0000B4000080D4000080F4000080020DFF8EA
:1030F000581208600020DFF8541208601420DFF82E
:10310000501208600020DFF84C1208600020DFF841
:1031100048120860DFF84412086850F001000860A7
:10312000DFF83C221368DFF83C02034013600B68B1
:10313000DFF8340203400B60086830F48020086038
:10314000106830F4FE0010600020DFF820120860E4
:103150007047DFF808120A6832F480320A600A68A1
:1031600032F480220A60B0F5803F03D0B0F5802FA2
:1031700005D009E0086850F48030086004E0086871
:1031800050F4A0200860FFE7704710B5DFF8E04179
:10319000312000F0BAF82070DFF8D8110868401C20
:1031A00008602078002802D10868FF28EED131207D
:1031B00000F0ABF8002801D0012000E0002010BD95
:1031C0000022674B1A6832F47C12084310431860DF
:1031D0007047C0B26849086070470021604A1168B2
:1031E000890889000843106070475D48006810F046
:1031F0000C00704700215A4A116831F0F001084371
:10320000106070470021564A116831F4E0610843AC
:10321000106070470021524A116831F4605151EA40
:10322000C0011160704710B400210021002100216D
:103230004B4A116811F00C01002904D0042905D073
:10324000082906D01EE04E4901601DE04C4901608E
:103250001AE0136813F470139B0C9B1C116811F493
:103260008031002903D147494B43036009E01168CD
:10327000890303D543494B43036002E040494B4374
:10328000036001E03E490160116811F0F001090995
:103290003D4B595C0468CC404460116811F4E06116
:1032A000090A595C4468CC408460116811F460518B
:1032B000C90A595C4368CB40C360116811F44041AE
:1032C000890B324A515CC268B2FBF1F1016110BC5A
:1032D0007047C9B2002904D01E490A68104308602B
:1032E00004E01C490A6832EA000008607047C9B26D
:1032F000002904D018490A681043086004E0164900
:103300000A6832EA000008607047002100210021AD
:103310000100C9B24909C9B2012902D10F4909689E
:1033200006E0022902D11549096801E01849096837
:10333000C0B210F01F00C140C80701D5012000E055
:103340000020C0B2704700000C1002401010024074
:1033500014100240181002401C10024000100240DD
:10336000041002400000FFF8FFFFF6FE08100240C4
:10337000140000200C000020600042422010024097
:1033800000127A0000093D00004100082C410008AD
:103390002410024038B501210820FFF79AFF754C30
:1033A000E02020800320A0701020E070724D2100EA
:1033B000280000F0E7F8E021280000F051F9012191
:1033C0000420FFF786FFFF2020800320A07010203C
:1033D000E0706A4D2100280000F0D4F8FF21280099
:1033E00000F03BF931BD000038B5634C20212000CE
:1033F00000F036F95F49FF20088003208870042020
:10340000C8705E4D280000F0BDF8FF21280000F0D4
:1034100024F9C021200000F020F900BF00BF00BF48
:1034200000BF00BF00BF00BF00BF00BF00BF00BFA4
:1034300000BF37E08021200000F012F900BF00BF7C
:1034400000BF00BF00BF00BF00BF00BF00BF00BF84
:1034500000BF00BF00BF00BF00BF00BF00BF00BF74
:1034600000BF00BF00BF00BF00BF00BF8021200021
:1034700000F0F3F800BF00BF00BF00BF00BF00BFF7
:1034800000BF00BF00BF00BF00BF00BF00BF00BF44
:1034900000BF00BF00BF00BF00BF00BF00BF00BF34
:1034A00000BF00BF8021280000F0CDF80028C1D166
:1034B0008021200000F0D4F831BD000070B5040078
:1034C000FFF792FF2C4D6021280000F0C9F8802101
:1034D000280000F0C2F82749FF20088003208870E8
:1034E0001020C870254E300000F04CF8FF2130004D
:1034F00000F0B6F8E4B2210089B2300000F0ADF877
:1035000000BF00BF00BF00BF00BF00BF00BF00BFC3
:1035100000BF00BF00BF00BF00BF00BF00BF00BFB3
:1035200000BF00BF00BF00BF00BF00BF00BF00BFA3
:103530008021280000F094F870BD000010B5104CF8
:10354000FFF728FF3820FFF7B9FF0120FFF7B6FF8C
:103550002000441E0028FBD10620FFF7AFFF0C20FF
:10356000FFF7ACFF0220FFF7A9FF8020FFF7A6FFBF
:1035700010BD000000000020000C014000080140C8
:103580005EA20600F0B400220022002200220022E7
:103590000022CB7813F00F03CA78D20601D58A78BF
:1035A00013430A78120621D0066800241AE0012786
:1035B00017FA04F50A882A40AA4212D1A2000F2560
:1035C0009540AE4313FA02F232431600CA78282A15
:1035D00002D117FA04F24261CA78482A01D1A74001
:1035E0000761641C082CE2D3066000220A88B2F549
:1035F000807F26DB4668002420E0012714F10805BF
:1036000017FA05F50A882A40AA4216D1A2000F250A
:103610009540AE4313FA02F232431600CA78282AC4
:1036200004D114F1080217FA02F24261CA78482A5A
:1036300003D114F1080297400761641C082CDCD305
:103640004660F0BC70470022806889B2084201D011
:10365000012000E00020C0B2704789B201617047CC
:1036600089B24161704710B400220F2311F00302A8
:10367000D2B2920013FA02F20F4B0C00E4B2A41083
:1036800053F8244034EA02020C00E4B2A41043F8D8
:1036900024200A00D2B2921053F82240C0B211F096
:1036A0000302D2B2920090402043C9B2891043F87D
:1036B000210010BC704700000800014080B500F0F8
:1036C000E9F801211D20FFF704FE00F01BF942F28A
:1036D00010724FF49661022000F096F800F084F921
:1036E000FFF72CFF00F007F800F01CF83030C0B2F4
:1036F00000F04BF9F8E710B5634C2100012000F011
:1037000074F82100022000F070F80023012201214A
:10371000062000F044F8012301220221072000F0D6
:103720003EF810BD3EB5002000240FE000980A21AD
:1037300048430199081803E003240A2CF6DB00989B
:10374000010015F1010F00D1641E641C032C25DA61
:1037500000F06AF905004FF4FA7000F012FA15F162
:10376000010FEAD00B2D06D1641E002C03D40020DB
:10377000694641F82400281E0A2806D2022C03D0EC
:10378000684640F8245000E0641E0A2DD5D1002C74
:1037900000D1641E012CCFD10A24CEE73EBD7FB5F7
:1037A0000C0015001E008DF8000000208DF80100AF
:1037B00000208DF8020001208DF80300684600F01B
:1037C00001FA3100C9B22800C0B2FFF74CFF0194E2
:1037D00000208DF8080008208DF8090001208DF8E0
:1037E0000A0001A800F04CFA7FBD80B50A00ADF8D0
:1037F000000003208DF8020004208DF803006946C4
:103800001000FFF7BFFE01BDFEB50F001600022835
:103810002ED15FF080441C2501210120FFF767FDB8
:10382000781EADF806000020ADF80A00701EADF855
:1038300004000020ADF8080001A9200000F074FA8F
:103840008DF8005000208DF8010000208DF8020056
:1038500001208DF80300684600F0B4F9012201212F
:10386000200000F07EFA0121200000F06CFAF7BD84
:10387000032802D1054C1D25CEE7042802D1044CB3
:103880001E25C9E7F3E70000000C014000040040DA
:103890000008004080B5FFF729FC5FF48030FFF797
:1038A00058FCFFF772FCC0B2012824D1102000F0B0
:1038B00080FA022000F074FA0020FFF79BFC002041
:1038C000FFF7A8FC4FF48060FFF79CFC5FF4E01169
:1038D0005FF48030FFF774FC0120FFF77AFC392099
:1038E000FFF713FD0028FAD00220FFF776FCFFF760
:1038F0007CFC0828FBD14FF440515FF0006000F0E1
:10390000ACF901BD80B5012144F20400FFF7E1FCF0
:1039100000F04AF800F003F800F020F801BD10B5FF
:1039200086B04FF4165000900020ADF8040000203F
:10393000ADF806000020ADF808000020ADF80A0040
:103940000C20ADF80C00264C6946200000F03EFA31
:103950000121200000F08CFA06B010BD704770B550
:1039600004000D000CE01E4E8021300000F092FAA1
:103970000028F8D0217889B2300000F087FA641C62
:103980002800451E0028EED170BD10B50100144C72
:10399000C9B289B2200000F079FA8021200000F03D
:1039A00079FA0028F9D010BD1CB54FF40070ADF8BD
:1039B000000018208DF8030003208DF80200094C48
:1039C00069462000FFF7DEFD4FF48060ADF800008F
:1039D00004208DF8030069462000FFF7D3FD13BDD6
:1039E00000380140000801401CB501211020FFF7FC
:1039F00070FC0720ADF8000003208DF802000420C1
:103A00008DF80300524C69462000FFF7BBFD78207B
:103A1000ADF8000010208DF8030069462000FFF784
:103A2000B1FD00F097F813BD10B5494C7821200086
:103A3000FFF716FE08212000FFF70FFE01212000EE
:103A4000FFF701FE002801D0012080E002212000C4
:103A5000FFF7F9FD002801D0022078E004212000C2
:103A6000FFF7F1FD002801D0032070E0012000F0F5
:103A700088F878212000FFF7F3FD10212000FFF7E0
:103A8000ECFD01212000FFF7DEFD002801D004201D
:103A90005DE002212000FFF7D6FD002801D00520BF
:103AA00055E004212000FFF7CEFD002801D00620BC
:103AB0004DE0012000F065F878212000FFF7D0FDEF
:103AC00020212000FFF7C9FD01212000FFF7BBFDE9
:103AD000002801D007203AE002212000FFF7B3FDC3
:103AE000002801D0082032E004212000FFF7ABFDC0
:103AF000002801D009202AE0012000F042F87821B6
:103B00002000FFF7ADFD40212000FFF7A6FD0120BA
:103B100000F037F801212000FFF795FD002801D0C3
:103B20000A2014E002212000FFF78DFD002801D0BB
:103B300000200CE004212000FFF785FD002801D0C3
:103B40000B2004E0012000F01CF85FF0FF3010BDF6
:103B500000100140E0B501210220FFF7C8FB41F64B
:103B60001F40ADF802000020ADF806000920ADF8B6
:103B700000000020ADF804006946114800F0D4F8B8
:103B800007BD70B504000E4E0121300000F0DBF8D7
:103B900000250AE00121300000F0EFF80028F9D0FC
:103BA0000121300000F0F2F86D1C2800210080B2E5
:103BB00089B28842EED30021300000F0C4F870BD15
:103BC0000004004030B400210021002100210F2317
:103BD000C178002935D02749096811F4E061D1F591
:103BE000E061090AD1F10402CB40417811FA02F2F6
:103BF00081780B401A431201017811F00301C9B218
:103C0000C9008A40194C0178891054F82110FF2509
:103C1000037813F00303DBB2DB0015FA03F39943D7
:103C20001A400A430178891044F8212001210278C2
:103C300012F01F029140104A0078401142F8201003
:103C400009E00121027812F01F029140064A007833
:103C5000401142F8201030BC7047084A1140084318
:103C6000034908607047000080E100E000E400E0E4
:103C700008ED00E00CED00E000E100E080FFFF1F38
:103C800030B48179002927D0234A017951180B6873
:103C900001680B43017951180B60204B1C680168C7
:103CA0008C431C601E4C256801688D43256041795A
:103CB000102908D11A6801680A431A60216800684F
:103CC0000143216011E0417951180B6801680B43F1
:103CD00040791218136008E00F4A017951180B68F7
:103CE00001688B4300791218136030BC70470021C3
:103CF00000210949096801400A4A1268024203D0BA
:103D0000002901D0012000E00020C0B27047054921
:103D100008607047000000000004014008040140F2
:103D20000C040140140401400A8882854A880285F7
:103D3000028812F08F02028002888B88C9880B43A8
:103D40001A4302807047C9B2002904D0018851F09B
:103D50000101018004E0028840F2FE310A40028045
:103D60007047D2B2002A03D082891143818103E0D7
:103D7000828932EA0101818170470022008A08426B
:103D800001D0012000E00020C0B27047028A32EA70
:103D9000010101827047028A32EA01010182704703
:103DA00009490A6812F038020A600A68104308607C
:103DB000704705490A6832F010020A600A68104329
:103DC00008607047000000000020024030B585B058
:103DD00004000D000020002000200020218A4CF269
:103DE000FF000140EA88E8890243288A0243688A82
:103DF0000243A88A0243114321820020A1894EF682
:103E0000F3100140AA8828890243A889024311437C
:103E1000A1810020A18A4FF6FF400140688901433B
:103E2000A18200206846FFF7FEF91048844201D1C4
:103E3000039900E002991920414328688000B1FBF2
:103E4000F0F26420B2FBF0F109010B001B096420C1
:103E500000FB1322100132306422B0FBF2F010F0AC
:103E60000F000143218105B030BD00000038014042
:103E7000C9B2002904D0818951F40051818104E044
:103E800082894DF6FF710A4082817047C905C90DCC
:103E90008180704700220088084201D0012000E0A4
:103EA0000020C0B2704730B4002513E050F8042B56
:103EB000D30744BFA9F101039A18091F042942F846
:103EC000045BFAD213468C0744BF15809B1CC907BC
:103ED00048BF1D7050F8041B0029E7D130BC704763
:103EE0007047FEE7FEE7FEE7FEE770477047704762
:103EF000704770477047704770477047704780B58C
:103F00000120FFF7F4FE002809D007213148FFF710
:103F100026FD0120304908600120FFF7F8FE01BDB1
:103F200080B50220FFF7E3FE002809D007212B48C7
:103F3000FFF715FD01202A4908600220FFF7E7FE80
:103F400001BD7047704770477047704770477047B2
:103F500070477047704770477047704770477047A9
:103F60007047704770477047704780B501215FF018
:103F70008040FFF702FF01282BD101215FF0804034
:103F8000FFF709FF17480178491C017001780A29D9
:103F900005D115490A78521C0A7000210170124897
:103FA0000178062905D111490A78521C0A700021AE
:103FB00001700E4801780A2905D10D490A78521C72
:103FC0000A70002101700A480178062901D10021F8
:103FD000017001BD1C4100080400002024410008BC
:103FE0000800002013000020120000201100002013
:103FF0001000002070477047704770477047704747
:1040000070477047704770477047704770477047F8
:1040100030BF704720BF704740BF7047BFF36F8FFE
:104020007047BFF34F8F7047BFF35F8F704701DF5B
:104030007047EFF31480704780F31488BFF36F8FDD
:104040007047EFF30980704780F309887047EFF3FA
:104050000880704780F30888704772B6704762B670
:10406000704771B6704761B6704780F3118870472A
:10407000EFF31280704740BA704700BA70470000F3
:1040800010B5074979441831064C7C44163404E0D5
:104090000A68081D114488470146A142F8D110BDA5
:1040A0000800000014000000FFFDFFFF18000000E2
:1040B000000000200000000000F00DF8002801D0F2
:1040C000FFF7DEFFAFF300800020AFF30080FFF7C3
:1040D000F5FA00F002F80120704700F001B8000086
:1040E0000746384600F002F8FBE7000080B5AFF362
:1040F0000080024A11001820ABBEFBE72600020038
:10410000000000000102030401020304060708097D
:10411000AFF30080AFF30080FFF7CEFF455854495E
:10412000300A000045585449310A000002040608CC
:04000005080041119D
:00000001FF
