:020000040800F2
:10300000180400206D400008D13D0008D33D0008A1
:10301000D53D0008D73D0008D93D0008000000005C
:10302000000000000000000000000000DD3D00087E
:10303000DB3D000800000000DF3D0008E13D000826
:10304000E33D0008E53D0008E73D0008E93D0008D4
:10305000EB3D0008ED3D0008EF3D0008113E000883
:10306000333E0008353E0008373E0008393E000870
:103070003B3E00083D3E00083F3E0008413E000840
:10308000433E0008453E0008473E0008493E000810
:103090004B3E00084D3E00084F3E0008513E0008E0
:1030A000533E0008553E0008573E0008593E0008B0
:1030B0005B3E0008E53E0008E73E0008E93E0008E8
:1030C000EB3E0008ED3E0008EF3E0008F13E000830
:1030D000F33E0008F53E0008F73E0008F93E000800
:1030E000FB3E0008FD3E0008FF3E000880B500F0F2
:1030F0002CF800F001F8FCE710B53224DFF8D40218
:10310000042100F0A6F941F2883000F0F0F903E064
:1031100050A0042100F09DF9DFF8BC02042100F06A
:1031200098F900F099F8A04207D08442F0DBDFF86C
:10313000AC02042100F08DF9EEE7DFF8A4020421CF
:1031400000F087F900F018F810BD80B500F0F0F934
:1031500001211D2000F017FB00F04EF942F2107221
:103160004FF49661022000F0F2F800F06DFB00F0E1
:1031700059F800F048F801BDF8B5002400E0641CDF
:10318000032C3FDA00251BE03068400030600DE082
:10319000DFF85072DFF85062316889B2380000F011
:1031A00077FC30688028EFD101203060316889B227
:1031B000380000F06AFC4FF47A7000F098F96D1C4A
:1031C000182DE5DB0027182FD9DADFF81862DFF8B1
:1031D0001852296889B2300000F05AFC286801288A
:1031E00003D028684008286001E080202860296812
:1031F00089B2300000F049FC4FF47A7000F077F9A2
:103200007F1CE0E7F1BD80B5FF20ADF80000032092
:103210008DF8020010208DF803006946714800F017
:10322000C9FB01BD10B5714C2100012000F080F8F0
:103230002100022000F07CF8002301220121062059
:1032400000F050F8012301220221072000F04AF883
:1032500010BD0000555000003EB5002000240EE0D7
:1032600000980A2148430199081803E003240A2C16
:10327000F6DB009815F1010F00D1641E641C032CCD
:103280002FDA032152A000F0E4F800F0FDFA050067
:103290004FF4FA7000F02BF915F1010FE7D00B2D68
:1032A00006D1641E002C03D40020694641F8240096
:1032B000281E0A280CD2002C03D1684640F824505E
:1032C00006E0012C03D1684640F8245000E0641E5B
:1032D0000A2DCCD1002C00D1641E012CC6D10A24A9
:1032E000C5E73EBD7FB50C0015001E008DF800003F
:1032F00000208DF8010000208DF8020001208DF8DB
:103300000300684600F0F2FB3100C9B22800C0B2E9
:1033100000F0C1FB019400208DF8080008208DF812
:10332000090001208DF80A0001A800F03DFC7FBDD6
:1033300080B50A00ADF8000003208DF802000420DB
:103340008DF803006946100000F034FB01BDFEB5A6
:103350000F00160002282ED15FF080441C250121A9
:10336000012000F01EFA781EADF806000020ADF82E
:103370000A00701EADF804000020ADF8080001A995
:10338000200000F065FC8DF8005000208DF8010051
:1033900000208DF8020001208DF80300684600F03F
:1033A000A5FB01220121200000F06FFC012120007B
:1033B00000F05DFCF7BD032802D10D4C1D25CEE7C2
:1033C000042802D10B4C1E25C9E7F3E700000000DA
:1033D000413A00003C4000082840000878400008BE
:1033E0004C4000080008014000000020000C014093
:1033F000000400400008004080B5012144F20400B0
:1034000000F0C1F900F03BF800F003F800F020F8FC
:1034100001BD10B586B04FF4165000900020ADF8F5
:1034200004000020ADF806000020ADF808000020E0
:10343000ADF80A000C20ADF80C001F4C69462000C6
:1034400000F042FC0121200000F090FC06B010BD0D
:10345000704770B504000D000CE0174E802130005D
:1034600000F096FC0028F8D0217889B2300000F0F6
:103470008BFC641C2800451E0028EED170BD1CB5D5
:103480004FF40070ADF8000018208DF80300032001
:103490008DF80200094C6946200000F08BFA4FF4C9
:1034A0008060ADF8000004208DF80300694620001C
:1034B00000F080FA13BD0000003801400008014010
:1034C000E0B50121022000F06CF941F61F40ADF893
:1034D00002000020ADF806000920ADF80000002031
:1034E000ADF804006946114800F0B2FB07BD70B5A5
:1034F00004000E4E0121300000F0B9FB00250AE067
:103500000121300000F0CDFB0028F9D0012130006E
:1035100000F0D0FB6D1C2800210080B289B28842E7
:10352000EED30021300000F0A2FB70BD000400408B
:1035300080B500F035F85FF4803000F064F800F0FA
:103540007EF8C0B2012824D1102000F034FC022003
:1035500000F028FC002000F0A7F8002000F0B4F8EC
:103560004FF4806000F0A8F85FF4E0115FF4803061
:1035700000F080F8012000F086F8392000F01FF9F3
:103580000028FAD0022000F082F800F088F808281D
:10359000FBD14FF440515FF0006000F0F2FA01BD42
:1035A0000020DFF8581208600020DFF8541208608D
:1035B0001420DFF8501208600020DFF84C12086079
:1035C0000020DFF848120860DFF84412086850F065
:1035D00001000860DFF83C221368DFF83C0203407A
:1035E00013600B68DFF8340203400B60086830F4A6
:1035F00080200860106830F4FE0010600020DFF8C2
:10360000201208607047DFF808120A6832F480322E
:103610000A600A6832F480220A60B0F5803F03D065
:10362000B0F5802F05D009E0086850F480300860BC
:1036300004E0086850F4A0200860FFE7704710B568
:10364000DFF8E041312000F0BAF82070DFF8D8113F
:103650000868401C08602078002802D10868FF280C
:10366000EED1312000F0ABF8002801D0012000E0BD
:10367000002010BD0022674B1A6832F47C12084308
:10368000104318607047C0B2684908607047002155
:10369000604A1168890889000843106070475D48D6
:1036A000006810F00C00704700215A4A116831F090
:1036B000F0010843106070470021564A116831F448
:1036C000E0610843106070470021524A116831F4EC
:1036D000605151EAC0011160704710B4002100210F
:1036E000002100214B4A116811F00C01002904D07F
:1036F000042905D0082906D01EE04E4901601DE0CE
:103700004C4901601AE0136813F470139B0C9B1C66
:10371000116811F48031002903D147494B430360FC
:1037200009E01168890303D543494B43036002E074
:1037300040494B43036001E03E490160116811F0CC
:10374000F00109093D4B595C0468CC4044601168A4
:1037500011F4E061090A595C4468CC408460116846
:1037600011F46051C90A595C4368CB40C3601168C9
:1037700011F44041890B324A515CC268B2FBF1F14D
:10378000016110BC7047C9B2002904D01E490A6803
:103790001043086004E01C490A6832EA000008602F
:1037A0007047C9B2002904D018490A68104308605C
:1037B00004E016490A6832EA0000086070470021F8
:1037C000002100210100C9B24909C9B2012902D171
:1037D0000F49096806E0022902D11549096801E08C
:1037E00018490968C0B210F01F00C140C80701D5D0
:1037F000012000E00020C0B2704700000C10024021
:103800001010024014100240181002401C10024018
:1038100000100240041002400000FFF8FFFFF6FE17
:1038200008100240140000200C00002060004242FA
:103830002010024000127A0000093D005C400008A0
:1038400090400008241002401CB501211020FFF711
:103850009AFF0720ADF8000003208DF80200042035
:103860008DF80300524C6946200000F0A3F8782040
:10387000ADF8000010208DF803006946200000F02C
:1038800099F8FFF71DFE13BD10B5494C78212000B3
:1038900000F0FEF80821200000F0F7F801212000D8
:1038A00000F0E9F8002801D0012080E0022120008A
:1038B00000F0E1F8002801D0022078E00421200087
:1038C00000F0D9F8002801D0032070E00120FFF7B4
:1038D0000EFE7821200000F0DBF81021200000F01F
:1038E000D4F80121200000F0C6F8002801D00420FF
:1038F0005DE00221200000F0BEF8002801D0052084
:1039000055E00421200000F0B6F8002801D0062080
:103910004DE00120FFF7EBFD7821200000F0B8F822
:103920002021200000F0B1F80121200000F0A3F8D0
:10393000002801D007203AE00221200000F09BF887
:10394000002801D0082032E00421200000F093F884
:10395000002801D009202AE00120FFF7C8FD7821C6
:10396000200000F095F84021200000F08EF80120A2
:10397000FFF7BDFD0121200000F07DF8002801D0F7
:103980000A2014E00221200000F075F8002801D080
:1039900000200CE00421200000F06DF8002801D088
:1039A0000B2004E00120FFF7A2FD5FF0FF3010BD07
:1039B00000100140F0B40022002200220022002268
:1039C0000022CB7813F00F03CA78D20601D58A788B
:1039D00013430A78120621D0066800241AE0012752
:1039E00017FA04F50A882A40AA4212D1A2000F252C
:1039F0009540AE4313FA02F232431600CA78282AE1
:103A000002D117FA04F24261CA78482A01D1A740CC
:103A10000761641C082CE2D3066000220A88B2F514
:103A2000807F26DB4668002420E0012714F108058A
:103A300017FA05F50A882A40AA4216D1A2000F25D6
:103A40009540AE4313FA02F232431600CA78282A90
:103A500004D114F1080217FA02F24261CA78482A26
:103A600003D114F1080297400761641C082CDCD3D1
:103A70004660F0BC70470022806889B2084201D0DD
:103A8000012000E00020C0B2704789B20161704798
:103A900089B24161704710B400220F2311F0030274
:103AA000D2B2920013FA02F20F4B0C00E4B2A4104F
:103AB00053F8244034EA02020C00E4B2A41043F8A4
:103AC00024200A00D2B2921053F82240C0B211F062
:103AD0000302D2B2920090402043C9B2891043F849
:103AE000210010BC704700000800014030B40021E4
:103AF0000021002100210F23C178002935D027495A
:103B0000096811F4E061D1F5E061090AD1F104021C
:103B1000CB40417811FA02F281780B401A4312012E
:103B2000017811F00301C9B2C9008A40194C01782B
:103B3000891054F82110FF25037813F00303DBB23A
:103B4000DB0015FA03F399431A400A430178891000
:103B500044F821200121027812F01F029140104AFE
:103B60000078401142F8201009E00121027812F09B
:103B70001F029140064A0078401142F8201030BCE4
:103B80007047084A11400843034908607047000025
:103B900080E100E000E400E008ED00E00CED00E072
:103BA00000E100E080FFFF1F30B48179002927D0B9
:103BB000234A017951180B6801680B4301795118A8
:103BC0000B60204B1C6801688C431C601E4C2568F0
:103BD00001688D4325604179102908D11A68016870
:103BE0000A431A60216800680143216011E04179AD
:103BF00051180B6801680B4340791218136008E0F4
:103C00000F4A017951180B6801688B43007912182B
:103C1000136030BC70470021002109490968014048
:103C20000A4A1268024203D0002901D0012000E0B4
:103C30000020C0B2704705490860704700000000CE
:103C400000040140080401400C0401401404014038
:103C50000A8882854A880285028812F08F020280D3
:103C600002888B88C9880B431A4302807047C9B207
:103C7000002904D0018851F00101018004E002888C
:103C800040F2FE310A4002807047D2B2002A03D0CF
:103C900082891143818103E0828932EA01018181B5
:103CA00070470022008A084201D0012000E0002075
:103CB000C0B27047028A32EA010101827047028A6B
:103CC00032EA01010182704730B585B004000D0071
:103CD0000020002000200020218A4CF2FF0001403B
:103CE000EA88E8890243288A0243688A0243A88A4C
:103CF0000243114321820020A1894EF6F3100140B6
:103D0000AA8828890243A88902431143A18100207F
:103D1000A18A4FF6FF40014068890143A18200203B
:103D20006846FFF7DAFC1048844201D1039900E0AD
:103D300002991920414328688000B1FBF0F2642009
:103D4000B2FBF0F109010B001B09642000FB1322F8
:103D5000100132306422B0FBF2F010F00F0001438A
:103D6000218105B030BD000000380140C9B20029F2
:103D700004D0818951F40051818104E082894DF69B
:103D8000FF710A4082817047C905C90D8180704763
:103D900000220088084201D0012000E00020C0B2CB
:103DA0007047000009490A6812F038020A600A6880
:103DB00010430860704705490A6832F010020A6033
:103DC0000A681043086070470000000000200240AD
:103DD0007047FEE7FEE7FEE7FEE770477047704773
:103DE000704770477047704770477047704780B59D
:103DF0000120FFF710FF002809D007213148FFF705
:103E000028FB0120304908600120FFF714FF01BDA5
:103E100080B50220FFF7FFFE002809D007212B48BC
:103E2000FFF717FB01202A4908600220FFF703FF74
:103E300001BD7047704770477047704770477047C3
:103E400070477047704770477047704770477047BA
:103E50007047704770477047704780B501215FF029
:103E60008040FFF71EFF01282BD101215FF0804029
:103E7000FFF725FF17480178491C017001780A29CE
:103E800005D115490A78521C0A70002101701248A8
:103E90000178062905D111490A78521C0A700021BF
:103EA00001700E4801780A2905D10D490A78521C83
:103EB0000A70002101700A480178062901D1002109
:103EC000017001BD80400008040000208840000807
:103ED0000800002013000020120000201100002024
:103EE0001000002070477047704770477047704758
:103EF000704770477047704770477047704770470A
:103F000030BF704720BF704740BF7047BFF36F8F0F
:103F10007047BFF34F8F7047BFF35F8F704701DF6C
:103F20007047EFF31480704780F31488BFF36F8FEE
:103F30007047EFF30980704780F309887047EFF30B
:103F40000880704780F30888704772B6704762B681
:103F5000704771B6704761B6704780F3118870473B
:103F6000EFF31280704740BA704700BA704730B51F
:103F7000016884684218416802EB5103C90703D500
:103F80004C4401E0491C05D19A420AD012F9011BA8
:103F900012F8015B002904F8015BF3D4491EF7D540
:103FA000F2E70C3030BD000010B5074979441831F4
:103FB000064C7C44163404E00A68081D1144884706
:103FC0000146A142F8D110BD080000001400000015
:103FD0009FFFFFFFC000000008000000000000205D
:103FE00000F00DF8002801D0FFF7DEFFAFF30080EE
:103FF0000020AFF30080FFF779F800F002F801200D
:10400000704700F001B800000746384600F002F89B
:10401000FBE7000080B5AFF30080024A11001820D2
:10402000ABBEFBE726000200507574206E756D6212
:10403000657228307E3130302900000021557044EF
:104040006F776E2047616D652100000047726174D3
:10405000732120596F752077696E210000000000E0
:10406000010203040102030406070809AFF30080FC
:10407000AFF30080FFF7B4FF444F574E000000003D
:1040800045585449300A000045585449310A000047
:08409000020406080080EC00A8
:040000050800406D42
:00000001FF
