:020000040800F2
:1030000010040020A53D0008C5380008C738000896
:10301000C9380008CB380008CD380008000000008F
:10302000000000000000000000000000D13800088F
:10303000CF38000800000000D3380008D538000859
:10304000D7380008D9380008DB380008DD38000818
:10305000DF380008E1380008E3380008E5380008E8
:10306000E7380008E9380008EB380008ED380008B8
:10307000EF380008F1380008F3380008F538000888
:10308000F7380008F9380008FB380008FD38000858
:10309000FF38000801390008033900080539000825
:1030A00007390008093900080B3900080D390008F4
:1030B0000F390008893900088B3900088D3900085C
:1030C0008F390008913900089339000895390008B4
:1030D00097390008993900089B3900089D39000884
:1030E0009F390008A1390008A33900080020DFF843
:1030F000581208600020DFF8541208601420DFF82E
:10310000501208600020DFF84C1208600020DFF841
:1031100048120860DFF84412086850F001000860A7
:10312000DFF83C221368DFF83C02034013600B68B1
:10313000DFF8340203400B60086830F48020086038
:10314000106830F4FE0010600020DFF820120860E4
:103150007047DFF808120A6832F480320A600A68A1
:1031600032F480220A60B0F5803F03D0B0F5802FA2
:1031700005D009E0086850F48030086004E0086871
:1031800050F4A0200860FFE7704710B5DFF8E04179
:10319000312000F0BAF82070DFF8D8110868401C20
:1031A00008602078002802D10868FF28EED131207D
:1031B00000F0ABF8002801D0012000E0002010BD95
:1031C0000022674B1A6832F47C12084310431860DF
:1031D0007047C0B26849086070470021604A1168B2
:1031E000890889000843106070475D48006810F046
:1031F0000C00704700215A4A116831F0F001084371
:10320000106070470021564A116831F4E0610843AC
:10321000106070470021524A116831F4605151EA40
:10322000C0011160704710B400210021002100216D
:103230004B4A116811F00C01002904D0042905D073
:10324000082906D01EE04E4901601DE04C4901608E
:103250001AE0136813F470139B0C9B1C116811F493
:103260008031002903D147494B43036009E01168CD
:10327000890303D543494B43036002E040494B4374
:10328000036001E03E490160116811F0F001090995
:103290003D4B595C0468CC404460116811F4E06116
:1032A000090A595C4468CC408460116811F460518B
:1032B000C90A595C4368CB40C360116811F44041AE
:1032C000890B324A515CC268B2FBF1F1016110BC5A
:1032D0007047C9B2002904D01E490A68104308602B
:1032E00004E01C490A6832EA000008607047C9B26D
:1032F000002904D018490A681043086004E0164900
:103300000A6832EA000008607047002100210021AD
:103310000100C9B24909C9B2012902D10F4909689E
:1033200006E0022902D11549096801E01849096837
:10333000C0B210F01F00C140C80701D5012000E055
:103340000020C0B2704700000C1002401010024074
:1033500014100240181002401C10024000100240DD
:10336000041002400000FFF8FFFFF6FE08100240C4
:1033700008000020000000206000424220100240AF
:1033800000127A0000093D00943D0008B03D00089D
:10339000241002401CB501211020FFF79AFF0720DE
:1033A000ADF8000003208DF8020004208DF8030022
:1033B000524C6946200000F0A3F87820ADF80000D8
:1033C00010208DF803006946200000F099F800F005
:1033D00025F913BD10B5494C7821200000F0FEF806
:1033E0000821200000F0F7F80121200000F0E9F8A2
:1033F000002801D0012080E00221200000F0E1F847
:10340000002801D0022078E00421200000F0D9F843
:10341000002801D0032070E0012000F016F9782187
:10342000200000F0DBF81021200000F0D4F801218A
:10343000200000F0C6F8002801D004205DE0022141
:10344000200000F0BEF8002801D0052055E004213E
:10345000200000F0B6F8002801D006204DE0012041
:1034600000F0F3F87821200000F0B8F820212000C7
:1034700000F0B1F80121200000F0A3F8002801D0ED
:1034800007203AE00221200000F09BF8002801D03C
:10349000082032E00421200000F093F8002801D039
:1034A00009202AE0012000F0D0F87821200000F067
:1034B00095F84021200000F08EF8012000F0C5F8BA
:1034C0000121200000F07DF8002801D00A2014E03E
:1034D0000221200000F075F8002801D000200CE047
:1034E0000421200000F06DF8002801D00B2004E03A
:1034F000012000F0AAF85FF0FF3010BD001001407D
:10350000F0B4002200220022002200220022CB7808
:1035100013F00F03CA78D20601D58A7813430A78CC
:10352000120621D0066800241AE0012717FA04F5D4
:103530000A882A40AA4212D1A2000F259540AE4324
:1035400013FA02F232431600CA78282A02D117FA77
:1035500004F24261CA78482A01D1A7400761641C7D
:10356000082CE2D3066000220A88B2F5807F26DBB1
:103570004668002420E0012714F1080517FA05F534
:103580000A882A40AA4216D1A2000F259540AE43D0
:1035900013FA02F232431600CA78282A04D114F131
:1035A000080217FA02F24261CA78482A03D114F1DC
:1035B000080297400761641C082CDCD34660F0BC0D
:1035C00070470022806889B2084201D0012000E0E3
:1035D0000020C0B2704789B20161704789B2416171
:1035E000704730B4002513E050F8042BD30744BFD4
:1035F000A9F101039A18091F042942F8045BFAD2C1
:1036000013468C0744BF15809B1CC90748BF1D701B
:1036100050F8041B0029E7D130BC7047E0B5012108
:103620000220FFF764FE41F61F40ADF802000020C3
:10363000ADF806000920ADF800000020ADF8040048
:103640006946114800F022F807BD70B504000E4E1F
:103650000121300000F029F800250AE001213000A6
:1036600000F03DF80028F9D00121300000F040F8CA
:103670006D1C2800210080B289B28842EED300215F
:10368000300000F012F870BD000400400A88828506
:103690004A880285028812F08F02028002888B8895
:1036A000C9880B431A4302807047C9B2002904D06D
:1036B000018851F00101018004E0028840F2FE31EE
:1036C0000A4002807047D2B2002A03D08289114397
:1036D000818103E0828932EA010181817047002201
:1036E000008A084201D0012000E00020C0B27047EB
:1036F000028A32EA010101827047028A32EA01013C
:103700000182704780B5012144F20400FFF7E1FD1A
:1037100000F04AF800F003F800F020F801BD10B501
:1037200086B04FF4165000900020ADF80400002041
:10373000ADF806000020ADF808000020ADF80A0042
:103740000C20ADF80C00264C6946200000F04CF827
:103750000121200000F09AF806B010BD704770B546
:1037600004000D000CE01E4E8021300000F0A0F897
:103770000028F8D0217889B2300000F095F8641C58
:103780002800451E0028EED170BD10B50100144C74
:10379000C9B289B2200000F087F88021200000F033
:1037A00087F80028F9D010BD1CB54FF40070ADF8B3
:1037B000000018208DF8030003208DF80200094C4A
:1037C00069462000FFF79CFE4FF48060ADF80000D2
:1037D00004208DF8030069462000FFF791FE13BD19
:1037E000003801400008014030B585B004000D00EC
:1037F0000020002000200020218A4CF2FF00014020
:10380000EA88E8890243288A0243688A0243A88A30
:103810000243114321820020A1894EF6F31001409A
:10382000AA8828890243A88902431143A181002064
:10383000A18A4FF6FF40014068890143A182002020
:103840006846FFF7F0FC1048844201D1039900E07C
:1038500002991920414328688000B1FBF0F26420EE
:10386000B2FBF0F109010B001B09642000FB1322DD
:10387000100132306422B0FBF2F010F00F0001436F
:10388000218105B030BD000000380140C9B20029D7
:1038900004D0818951F40051818104E082894DF680
:1038A000FF710A4082817047C905C90D8180704748
:1038B00000220088084201D0012000E00020C0B2B0
:1038C000704700007047FEE7FEE7FEE7FEE770473F
:1038D0007047704770477047704770477047704730
:1038E0007047704770477047704770477047704720
:1038F0007047704770477047704770477047704710
:10390000704770477047704770477047704780B581
:1039100001215FF08040FFF7E2FE01282BD1012159
:103920005FF08040FFF7E9FE13480178491C017001
:1039300001780A2905D111490A78521C0A70002120
:1039400001700E480178062905D10D490A78521CEC
:103950000A70002101700A4801780A2905D1094935
:103960000A78521C0A700021017006480178062965
:1039700001D10021017001BD0700002006000020D8
:103980000500002004000020704770477047704712
:10399000704770477047704770477047704770476F
:1039A0007047704700B599B000F05AF8FFF7AAFECB
:1039B00042F210714FF4966000F01CF8FFF7EAFC39
:1039C00068460B49642200F083F806216846FFF739
:1039D000C6FEFFF7FFFC10F1010FFAD000F03DF832
:1039E000C0B2FFF7D2FE4FF47A70FFF72EFEF0E779
:1039F000B03C00083EB504000D0001210120FFF796
:103A000076FC601EADF806000020ADF80A00681EC6
:103A1000ADF804000020ADF8080001A95FF0804077
:103A2000FFF734FE1C208DF8000000208DF8010007
:103A300000208DF8020001208DF80300684600F098
:103A40008BF8012201215FF08040FFF73CFE01214D
:103A50005FF08040FFF729FE37BD3030C0B27047BD
:103A600080B5FFF743FB5FF48030FFF772FBFFF791
:103A70008CFBC0B2012824D1102000F0D4F8022021
:103A800000F0C8F80020FFF7B5FB0020FFF7C2FBED
:103A90004FF48060FFF7B6FB5FF4E0115FF4803015
:103AA000FFF78EFB0120FFF794FB3920FFF72DFC79
:103AB0000028FAD00220FFF790FBFFF796FB0828BA
:103AC000FBD14FF440515FF0006000F090F801BD71
:103AD000103A07D330B4B1E83810103AA0E83810E3
:103AE000F9D230BC530724BFB1E80810A0E8081091
:103AF00044BF51F8043B40F8043BD20724BF31F8DF
:103B0000022B20F8022B44BF0B7803707047121F62
:103B100017D35B0009D151F8043B20F8023B1B0C82
:103B2000121F20F8023BF6D20BE051F8043B00F8DC
:103B3000013B1B0A20F8023B1B0C121F00F8013B43
:103B4000F3D238BF121D521E24BF11F8013B00F8FA
:103B5000013BF8D87047000030B40021002100215B
:103B600000210F23C178002935D02749096811F4B5
:103B7000E061D1F5E061090AD1F10402CB4041785E
:103B800011FA02F281780B401A431201017811F008
:103B90000301C9B2C9008A40194C0178891054F850
:103BA0002110FF25037813F00303DBB2DB0015FAC5
:103BB00003F399431A400A430178891044F82120FD
:103BC0000121027812F01F029140104A0078401142
:103BD00042F8201009E00121027812F01F02914002
:103BE000064A0078401142F8201030BC7047084A5D
:103BF00011400843034908607047000080E100E07D
:103C000000E400E008ED00E00CED00E000E100E081
:103C100080FFFF1F09490A6812F038020A600A682B
:103C200010430860704705490A6832F010020A60C4
:103C30000A6810430860704700000000002002403E
:103C400030BF704720BF704740BF7047BFF36F8FD2
:103C50007047BFF34F8F7047BFF35F8F704701DF2F
:103C60007047EFF31480704780F31488BFF36F8FB1
:103C70007047EFF30980704780F309887047EFF3CE
:103C80000880704780F30888704772B6704762B644
:103C9000704771B6704761B6704780F311887047FE
:103CA000EFF31280704740BA704700BA70470000C7
:103CB00053746172740A00000000000000000000EC
:103CC00000000000000000000000000000000000F4
:103CD00000000000000000000000000000000000E4
:103CE00000000000000000000000000000000000D4
:103CF00000000000000000000000000000000000C4
:103D000000000000000000000000000000000000B3
:103D10000000000010B5074979441831064C7C4476
:103D2000163404E00A68081D114488470146A14280
:103D3000F8D110BD0800000014000000A7F8FFFF34
:103D40000C000000000000200000000000F00DF852
:103D5000002801D0FFF7DEFFAFF300800020AFF3B3
:103D60000080FFF71FFE00F002F80120704700F00E
:103D700001B800000746384600F002F8FBE70000F3
:103D800080B5AFF30080024A11001820ABBEFBE7FC
:103D900026000200000000000102030401020304E7
:103DA00006070809AFF30080AFF30080FFF7CEFFEE
:043DB00002040608FB
:0400000508003DA50D
:00000001FF
