:020000040800F2
:1030000080040020B5410008FD3E0008FF3E000896
:10301000013F0008033F0008053F000800000000D2
:10302000000000000000000000000000093F000850
:10303000073F0008000000000B3F00080D3F00089C
:103040000F3F0008113F0008133F0008153F00081C
:10305000173F0008193F00081B3F00083D3F0008CC
:103060005F3F0008613F0008633F0008653F0008BC
:10307000673F0008693F00086B3F00086D3F00088C
:103080006F3F0008713F0008733F0008753F00085C
:10309000773F0008793F00087B3F00087D3F00082C
:1030A0007F3F0008813F0008833F0008853F0008FC
:1030B000873F000855400008574000085940000865
:1030C0005B4000085D4000085F4000086140000868
:1030D0006340000865400008674000086940000838
:1030E0006B4000086D4000086F40000880B500F09C
:1030F00056F80B21DFF8E40300F041FA00F001F884
:10310000F7E77CB532240F21DFF8D40300F037FA5B
:103110000021032000F066F904E00421DFF8C40375
:1031200000F02DFA1321DFF8C00300F028FA00F0B8
:103130007DFA05004FF4967000F025FB15F1010FA4
:10314000F5D000F073FA06004FF4967000F01BFB08
:1031500016F1010FF5D015F130008DF8000016F1D1
:1031600030008DF8010000208DF802000321684630
:1031700000F005FA0A2000FB0566A64207D11121DE
:10318000DFF8680300F0FBF900F022F873BDB442E9
:10319000C3DB0621DFF8580300F0F1F9C2E780B580
:1031A00000F012FB01211D2000F039FC00F0BAF9FB
:1031B00042F210724FF49661022000F0CAF800F05B
:1031C00015FA00F06AF800F058F800F046F801BD72
:1031D000F8B5002400E0641C032C3DDA00251AE059
:1031E0003068400030600DE0DFF80873DFF80863F6
:1031F000316889B2380000F0E1FC30688028EFD1F6
:1032000001203060316889B2380000F0D4FCC82059
:1032100000F0B9FA6D1C182DE6DB0027182FDADA5A
:10322000DFF8D062DFF8D052296889B2300000F0B0
:10323000C5FC2868012803D028684008286001E000
:1032400080202860296889B2300000F0B4FCC820D2
:1032500000F099FA7F1CE1E7F1BD10B5DFF89C4260
:103260002100DFF89C02008800F055F82100DFF80B
:103270009402008800F05EF810BD80B5FF20ADF824
:10328000000003208DF8020010208DF8030069462D
:10329000DFF8600200F024FC01BD10B5DFF85C42ED
:1032A0002100012000F046F82100022000F042F841
:1032B000002301220121062000F007F8012301224A
:1032C0000221072000F001F810BD7FB50C001500A9
:1032D0001E008DF8000000208DF8010000208DF800
:1032E000020001208DF80300684600F095FC3100D3
:1032F000C9B22800C0B200F064FC019400208DF82F
:10330000080008208DF8090001208DF80A0001A8A6
:1033100000F0E0FC7FBD80B50A00ADF8000003209E
:103320008DF8020010208DF803006946100000F0AF
:10333000D7FB01BD80B50A00ADF8000003208DF871
:10334000020004208DF803006946100000F0C8FB5D
:1033500001BDFEB50F00160002282ED15FF080449B
:103360001C250121012000F068FB781EADF8060045
:103370000020ADF80A00701EADF804000020ADF882
:10338000080001A9200000F0F9FC8DF80050002091
:103390008DF8010000208DF8020001208DF8030057
:1033A000684600F039FC01220121200000F003FDF5
:1033B0000121200000F0F1FCF7BD032802D1524C9E
:1033C0001D25CEE7042802D1504C1E25C9E7F3E79E
:1033D00001B402E00098401E009000980028F9D146
:1033E00001B070472DE9F84F494C2060494D2960E4
:1033F000424FDFF81081B8F80010380000F0DBFB16
:103400008021380000F0DAFBDFF8F490B9F8001002
:10341000380000F0D3FBDFF800A128681AF800108C
:1034200089B2380000F0C7FB41F6FF7B5846FFF732
:10343000CFFFB8F80010380000F0BDFB4021380085
:1034400000F0BCFBB9F80010380000F0B7FB2068B2
:103450001AF8001089B2380000F0ADFB5846FFF7AB
:10346000B7FFB8F80010380000F0A5FB20213800A5
:1034700000F0A4FBB9F80010380000F09FFB274EC5
:1034800030681AF8001051F0800189B2380000F05D
:1034900092FB5846FFF79CFFB8F80010380000F088
:1034A0008AFB0421380000F089FBB9F800103800CD
:1034B00000F084FB1A4800681AF8001089B238003E
:1034C00000F079FB5846FFF783FF2868316808430E
:1034D0002168084300288BD1BDE8F18FA84100087E
:1034E0001800002050000020280000203C00002090
:1034F000540000200008014000000020000C0140A2
:10350000780000207A0000200004004000080040FD
:1035100064000020680000200400002060000020FB
:103520005C00002080B5012144F2040000F077FA2D
:1035300000F03BF800F003F800F020F801BD10B5F2
:1035400086B04FF4165000900020ADF80400002023
:10355000ADF806000020ADF808000020ADF80A0024
:103560000C20ADF80C001F4C6946200000F042FC16
:103570000121200000F090FC06B010BD704770B52E
:1035800004000D000CE0174E8021300000F096FC86
:103590000028F8D0217889B2300000F08BFC641C40
:1035A0002800451E0028EED170BD1CB54FF40070F8
:1035B000ADF8000018208DF8030003208DF80200FC
:1035C000094C6946200000F08BFA4FF48060ADF89A
:1035D000000004208DF803006946200000F080FA06
:1035E00013BD000000380140000801401CB5012156
:1035F000102000F014FA0720ADF8000003208DF829
:10360000020004208DF80300524C6946200000F0AF
:1036100067FA7820ADF8000010208DF803006946A5
:10362000200000F05DFA00F097F813BD10B5494C8A
:103630007821200000F0C2FA0821200000F0BBFA37
:103640000121200000F0ADFA002801D0012080E027
:103650000221200000F0A5FA002801D0022078E025
:103660000421200000F09DFA002801D0032070E022
:10367000012000F088F87821200000F09FFA102146
:10368000200000F098FA0121200000F08AFA0028BA
:1036900001D004205DE00221200000F082FA002821
:1036A00001D0052055E00421200000F07AFA00281E
:1036B00001D006204DE0012000F065F878212000BF
:1036C00000F07CFA2021200000F075FA0121200092
:1036D00000F067FA002801D007203AE0022120001C
:1036E00000F05FFA002801D0082032E00421200019
:1036F00000F057FA002801D009202AE0012000F04C
:1037000042F87821200000F059FA4021200000F012
:1037100052FA012000F037F80121200000F041FAB0
:10372000002801D00A2014E00221200000F039FA1C
:10373000002801D000200CE00421200000F031FA24
:10374000002801D00B2004E0012000F01CF85FF0FD
:10375000FF3010BD00100140E0B50121022000F053
:103760006CF941F61F40ADF802000020ADF80600EC
:103770000920ADF800000020ADF8040069461148AA
:1037800000F0FCFA07BD70B504000E4E01213000B8
:1037900000F003FB00250AE00121300000F017FBD8
:1037A0000028F9D00121300000F01AFB6D1C280020
:1037B000210080B289B28842EED30021300000F0AF
:1037C000ECFA70BD0004004080B500F035F85FF4FD
:1037D000803000F064F800F07EF8C0B2012824D1F7
:1037E000102000F07EFB022000F072FB002000F0B1
:1037F000A7F8002000F0B4F84FF4806000F0A8F8BB
:103800005FF4E0115FF4803000F080F8012000F0F8
:1038100086F8392000F01FF90028FAD0022000F0C5
:1038200082F800F088F80828FBD14FF440515FF08F
:10383000006000F03CFA01BD0020DFF8581208607B
:103840000020DFF8541208601420DFF850120860DE
:103850000020DFF84C1208600020DFF848120860F2
:10386000DFF84412086850F001000860DFF83C22DD
:103870001368DFF83C02034013600B68DFF8340282
:1038800003400B60086830F480200860106830F452
:10389000FE0010600020DFF8201208607047DFF89B
:1038A00008120A6832F480320A600A6832F4802210
:1038B0000A60B0F5803F03D0B0F5802F05D009E055
:1038C000086850F48030086004E0086850F4A020D4
:1038D0000860FFE7704710B5DFF8E041312000F0E5
:1038E000BAF82070DFF8D8110868401C086020780A
:1038F000002802D10868FF28EED1312000F0ABF893
:10390000002801D0012000E0002010BD0022674BFC
:103910001A6832F47C120843104318607047C0B232
:103920006849086070470021604A11688908890069
:103930000843106070475D48006810F00C00704745
:1039400000215A4A116831F0F001084310607047B5
:103950000021564A116831F4E06108431060704755
:103960000021524A116831F4605151EAC0011160DE
:10397000704710B400210021002100214B4A11683A
:1039800011F00C01002904D0042905D0082906D023
:103990001EE04E4901601DE04C4901601AE01368C9
:1039A00013F470139B0C9B1C116811F480310029D7
:1039B00003D147494B43036009E01168890303D5EC
:1039C00043494B43036002E040494B43036001E03D
:1039D0003E490160116811F0F00109093D4B595C45
:1039E0000468CC404460116811F4E061090A595C34
:1039F0004468CC408460116811F46051C90A595C74
:103A00004368CB40C360116811F44041890B324ACE
:103A1000515CC268B2FBF1F1016110BC7047C9B2E0
:103A2000002904D01E490A681043086004E01C49BC
:103A30000A6832EA000008607047C9B2002904D061
:103A400018490A681043086004E016490A6832EA17
:103A50000000086070470021002100210100C9B268
:103A60004909C9B2012902D10F49096806E00229B2
:103A700002D11549096801E018490968C0B210F07F
:103A80001F00C140C80701D5012000E00020C0B2DE
:103A9000704700000C100240101002401410024049
:103AA000181002401C100240001002400410024096
:103AB0000000FFF8FFFFF6FE081002407C00002027
:103AC00074000020600042422010024000127A0080
:103AD00000093D0098410008D04100082410024030
:103AE000F0B4002200220022002200220022CB7823
:103AF00013F00F03CA78D20601D58A7813430A78E7
:103B0000120621D0066800241AE0012717FA04F5EE
:103B10000A882A40AA4212D1A2000F259540AE433E
:103B200013FA02F232431600CA78282A02D117FA91
:103B300004F24261CA78482A01D1A7400761641C97
:103B4000082CE2D3066000220A88B2F5807F26DBCB
:103B50004668002420E0012714F1080517FA05F54E
:103B60000A882A40AA4216D1A2000F259540AE43EA
:103B700013FA02F232431600CA78282A04D114F14B
:103B8000080217FA02F24261CA78482A03D114F1F6
:103B9000080297400761641C082CDCD34660F0BC27
:103BA00070470022806889B2084201D0012000E0FD
:103BB0000020C0B2704789B20161704789B241618B
:103BC000704710B400220F2311F00302D2B292000A
:103BD00013FA02F20F4B0C00E4B2A41053F8244085
:103BE00034EA02020C00E4B2A41043F824200A00D4
:103BF000D2B2921053F82240C0B211F00302D2B2F6
:103C0000920090402043C9B2891043F8210010BCB3
:103C1000704700000800014030B40021002100215D
:103C200000210F23C178002935D02749096811F4F4
:103C3000E061D1F5E061090AD1F10402CB4041789D
:103C400011FA02F281780B401A431201017811F047
:103C50000301C9B2C9008A40194C0178891054F88F
:103C60002110FF25037813F00303DBB2DB0015FA04
:103C700003F399431A400A430178891044F821203C
:103C80000121027812F01F029140104A0078401181
:103C900042F8201009E00121027812F01F02914041
:103CA000064A0078401142F8201030BC7047084A9C
:103CB00011400843034908607047000080E100E0BC
:103CC00000E400E008ED00E00CED00E000E100E0C1
:103CD00080FFFF1F30B48179002927D0234A017962
:103CE00051180B6801680B43017951180B60204B88
:103CF0001C6801688C431C601E4C256801688D435C
:103D000025604179102908D11A6801680A431A60B0
:103D1000216800680143216011E0417951180B6866
:103D200001680B4340791218136008E00F4A0179CB
:103D300051180B6801688B4300791218136030BC6E
:103D40007047002100210949096801400A4A1268A8
:103D5000024203D0002901D0012000E00020C0B2BF
:103D600070470549086070470000000000040140EA
:103D7000080401400C040140140401400A888285B3
:103D80004A880285028812F08F02028002888B889E
:103D9000C9880B431A4302807047C9B2002904D076
:103DA000018851F00101018004E0028840F2FE31F7
:103DB0000A4002807047D2B2002A03D082891143A0
:103DC000818103E0828932EA01018181704700220A
:103DD000008A084201D0012000E00020C0B27047F4
:103DE000028A32EA010101827047028A32EA010145
:103DF0000182704730B585B004000D00002000201E
:103E000000200020218A4CF2FF000140EA88E88966
:103E10000243288A0243688A0243A88A0243114364
:103E200021820020A1894EF6F3100140AA8828893A
:103E30000243A88902431143A1810020A18A4FF6C1
:103E4000FF40014068890143A18200206846FFF7D6
:103E500090FD1048844201D1039900E00299192095
:103E6000414328688000B1FBF0F26420B2FBF0F11E
:103E700009010B001B09642000FB132210013230E2
:103E80006422B0FBF2F010F00F000143218105B075
:103E900030BD000000380140C9B2002904D081893A
:103EA00051F40051818104E082894DF6FF710A408E
:103EB00082817047C905C90D818070470022008842
:103EC000084201D0012000E00020C0B2704700008D
:103ED00009490A6812F038020A600A68104308604B
:103EE000704705490A6832F010020A600A681043F8
:103EF0000860704700000000002002407047FEE7A5
:103F0000FEE7FEE7FEE7704770477047704770476F
:103F10007047704770477047704780B50120FFF7C2
:103F200010FF002809D007214248FFF728FB012095
:103F3000414908600120FFF714FF01BD80B5022050
:103F4000FFF7FFFE002809D007213C48FFF717FBC9
:103F500001203B4908600220FFF703FF01BD7047C5
:103F60007047704770477047704770477047704799
:103F70007047704770477047704770477047704789
:103F800070477047704710B501215FF08040FFF720
:103F90001EFF01284DD101215FF08040FFF725FF72
:103FA000284A1068401E1060106810F1010F08D1F7
:103FB00025480168012904DB0168491E01600920C8
:103FC0001060106810F1010F0ED1204B1868012805
:103FD0000ADB1D490868002806D11868401E1860D1
:103FE0000520086009201060106810F1010F13D13E
:103FF000164C154B20681968084300280CD114484A
:104000000168012908DB0168491E01600920206060
:104010000520186009201060106810F1010F08D108
:104020000A480068084909680843002801D10020AF
:10403000106010BDC04100086C000020C84100089D
:104040007000002068000020640000206000002054
:104050005C0000207047704770477047704770479A
:104060007047704770477047704770477047704798
:1040700030BF704720BF704740BF7047BFF36F8F9E
:104080007047BFF34F8F7047BFF35F8F704701DFFB
:104090007047EFF31480704780F31488BFF36F8F7D
:1040A0007047EFF30980704780F309887047EFF39A
:1040B0000880704780F30888704772B6704762B610
:1040C000704771B6704761B6704780F311887047CA
:1040D000EFF31280704740BA704700BA704730B5AE
:1040E000016884684218416802EB5103C90703D58F
:1040F0004C4401E0491C05D19A420AD012F9011B37
:1041000012F8015B002904F8015BF3D4491EF7D5CE
:10411000F2E70C3030BD000010B507497944183182
:10412000064C7C44163404E00A68081D1144884794
:104130000146A142F8D110BD0800000014000000A3
:104140009FFFFFFF90000000C00000000000002063
:1041500000F00DF8002801D0FFF7DEFFAFF300807C
:104160000020AFF30080FEF7C1FF00F002F801204D
:10417000704700F001B800000746384600F002F82A
:10418000FBE7000080B5AFF30080024A1100182061
:10419000ABBEFBE7260002000000000001020304A2
:1041A000010203040607080947616D6553746172D3
:1041B000740A0000AFF30080AFF30080FFF7C8FF80
:1041C00045585449300A000045585449310A000006
:1041D000020406080080FD00473F065B4F666D7CC9
:1041E000077F67777C395E79710880000021557000
:1041F000446F776E2047616D65210A000050757429
:10420000206E756D62657228307E313030290A006B
:104210000047726174732120596F752077696E2190
:104220000AFC000855500A00444F574E0AE00003AC
:04423000FFE40000A7
:04000005080041B5F9
:00000001FF
