:020000040800F2
:10300000B00C0020F9430008394100083B4100089A
:103010003D4100083F410008414100080000000018
:103020000000000000000000000000004541000812
:1030300043410008000000004741000849410008E2
:103040004B4100084D4100084F4100085141000824
:1030500053410008554100085741000879410008D4
:103060007B4100087D4100087F4100088141000844
:103070008341000885410008874100088941000814
:103080008B4100088D4100088F41000891410008E4
:1030900093410008954100089741000899410008B4
:1030A0009B4100089D4100089F410008A141000884
:1030B000A3410008354200083742000839420008A1
:1030C0003B4200083D4200083F42000841420008E0
:1030D00043420008454200084742000849420008B0
:1030E0004B4200084D4200084F42000880B500F0F6
:1030F00063F81221DFF8000500F0FAFA052200213A
:10310000002000F00CFA00F0F3F805220021002066
:1031100000F005FA00F001F8EBE77CB532240F214E
:10312000DFF8D80400F0E4FA00220121002000F0CA
:10313000F6F904E00421DFF8C80400F0D9FA1321FD
:10314000DFF8C00400F0D4FA00F06EFB05004FF485
:10315000967000F016FC15F1010FF5D000F064FB3D
:1031600006004FF4967000F00CFC16F1010FF5D03C
:1031700015F130008DF8000016F130008DF80100D7
:1031800000208DF802000321684600F0B1FA0A2001
:1031900000FB0566A64207D11121DFF86C0400F0A0
:1031A000A7FA00F01BF873BDB442C3DB0621DFF8B9
:1031B0005C0400F09DFAC2E780B500F003FC012139
:1031C0001D2000F02AFD00F05BFA00F00DFB00F07E
:1031D00082F800F06FF800F04AF801BDF8B500245D
:1031E00000E0641C032C41DA00251CE0306840003C
:1031F00030600FE0DFF81874DFF81864316889B2C6
:10320000380000F0D9FD3068B0F5004FEED14FF432
:1032100080703060316889B2380000F0CAFDC82083
:1032200000F0AFFB6D1C182DE4DB0027182FD8DA57
:10323000DFF8DC63DFF8DC53296889B2300000F086
:10324000BBFD2868B0F5807F03D02868400828605F
:1032500002E04FF400402860296889B2300000F095
:10326000A8FDC82000F08DFB7F1CDFE7F1BD80B515
:1032700042F210724FF4E151022000F007F9DFF83A
:1032800098030088ADF8000003208DF8020010209C
:103290008DF803006946DFF8840300F01FFDDFF8B6
:1032A00080030088ADF800006946DFF8780300F07D
:1032B00015FD01BD80B54FF47F40ADF8000003203F
:1032C0008DF8020010208DF803006946DFF84003F6
:1032D00000F004FD01BD80B5DFF83413012000F0DB
:1032E000C6F8002301220121062000F09AF801BD52
:1032F00070B52221DFF8300300F0FAF90222002134
:10330000002000F00CF90D21DFF8200300F0F0F9A7
:1033100002220021002000F002F9002404E00B2129
:10332000DFF80C0300F0E4F9142C2BDADFF8045377
:103330005026502106FB04F0284400F0D9F9641C03
:1033400000220121002000F0EAF81D21DFF8E80248
:1033500000F0CEF905220021002000F0E0F8DFF8AF
:10336000DC120868002822D1502106FB04F605EB88
:10337000060000F0BDF9641C00220121002000F0CD
:10338000CEF8D1E71821DFF8B80200F0B1F93C21FE
:10339000DFF8B00200F0ACF905220021002000F0B7
:1033A000BEF8DFF8A4020068002815D014E0002061
:1033B00008601621DFF8940200F09AF900F00DF889
:1033C0000822A349A34800F01DF80028A7D00A212D
:1033D000A14800F08DF9DAE770BD10B505E000F006
:1033E0007CF9002801D000F099F99C4C2068002855
:1033F000F5D09B4802689B49964800F0E9F9002007
:10340000206010BD30B4002300E05B1C934205DA5D
:10341000C45CCD5CAC42F8D0002000E0012030BCA0
:1034200070477FB50C0015001E008DF800000020CD
:103430008DF8010000208DF8020001208DF80300B6
:10344000684600F0E7FC3100C9B22800C0B200F0C5
:10345000B6FC019400208DF8080008208DF80900C2
:1034600001208DF80A0001A800F032FD7FBD80B573
:103470000A00ADF8000003208DF8020004208DF84A
:1034800003006946100000F029FC01BDFEB50F00E5
:10349000160002282ED15FF080441C250121012056
:1034A00000F0C9FB781EADF806000020ADF80A0058
:1034B000701EADF804000020ADF8080001A920003E
:1034C00000F05AFD8DF8005000208DF8010000201A
:1034D0008DF8020001208DF80300684600F09AFC88
:1034E00001220121200000F064FD0121200000F0F4
:1034F00052FDF7BD032802D15B4C1D25CEE7042801
:1035000002D15A4C1E25C9E7F3E701B402E0009846
:10351000401E009000980028F9D101B070472DE9B5
:10352000F84F534B1860534801605348026057E00E
:103530003C4FDFF8EC80B8F80010380000F039FCA0
:103540004FF48071380000F037FCDFF8D090DFF8DE
:10355000C8A0BAF80010484600F02EFCDFF81CB1F5
:1035600030681BF8001089B2484600F022FC41F692
:10357000FF763000FFF7C9FFB8F80010380000F000
:1035800018FC4FF40071380000F016FCBAF8001077
:10359000484600F011FC28681BF8001089B2484624
:1035A00000F007FC3000FFF7B0FFB8F8001038005B
:1035B00000F0FFFB4FF48061380000F0FDFBBAF82B
:1035C0000010484600F0F8FB20681BF8001051F08E
:1035D000800189B2484600F0ECFB3000FFF795FF10
:1035E000254E244D224C2068296808183168081897
:1035F00000289DD1BDE8F18FC8430008EC000020F1
:1036000024010020FC0000201001002028010020DF
:10361000000C01400000002070070020000801405D
:10362000720700200010014020000020440000200C
:10363000EC430008300100206C000020A0080020AE
:103640005400002098000020A4080020D40000208E
:1036500018000020740800208C000020880800203A
:10366000900800207407002000040040000800407B
:1036700094080020980800209C08002004000020E6
:1036800080B5012144F2040000F0C7FA00F075F89B
:1036900000F003F800F020F801BD10B586B04FF43B
:1036A000165000900020ADF804000020ADF8060090
:1036B0000020ADF808000020ADF80A000C20ADF89D
:1036C0000C003C4C6946200000F092FC01212000D7
:1036D00000F0E0FC06B010BD704780B520213548F1
:1036E00000F0EEFC002801D0012000E0002002BD27
:1036F00070B504000D000CE02E4E8021300000F06B
:10370000DFFC0028F8D0217889B2300000F0D0FC2E
:10371000641C2800451E0028EED170BD38B5254830
:1037200000F0CAFC0100C9B20D2903D00100C9B2E2
:103730000A2915D1204C206800281DD01F4D226871
:103740001F49280000F044F8002021686854012037
:103750001C49086020681C490860002020600BE0BC
:1037600015490A68802A01D100220A60144A0B68B0
:10377000D0540868401C086031BD1CB54FF400707F
:10378000ADF8000018208DF8030003208DF802002A
:103790000E4C6946200000F0A1FA4FF48060ADF8AD
:1037A000000004208DF803006946200000F096FA1E
:1037B00013BD0000003801408C0800207407002071
:1037C000F40700208808002090080020000801402D
:1037D00010B4002302E0CC5CC4545B1C9342FADBBF
:1037E0000021815410BC70471CB50121102000F04D
:1037F00014FA0720ADF8000003208DF80200042021
:103800008DF80300524C6946200000F067FA7820DA
:10381000ADF8000010208DF803006946200000F08C
:103820005DFA00F097F813BD10B5494C78212000DF
:1038300000F0C2FA0821200000F0BBFA01212000AC
:1038400000F0ADFA002801D0012080E00221200024
:1038500000F0A5FA002801D0022078E00421200021
:1038600000F09DFA002801D0032070E0012000F054
:1038700088F87821200000F09FFA1021200000F045
:1038800098FA0121200000F08AFA002801D00420D3
:103890005DE00221200000F082FA002801D005201E
:1038A00055E00421200000F07AFA002801D006201B
:1038B0004DE0012000F065F87821200000F07CFA4E
:1038C0002021200000F075FA0121200000F067FAA5
:1038D000002801D007203AE00221200000F05FFA22
:1038E000002801D0082032E00421200000F057FA1F
:1038F000002801D009202AE0012000F042F87821B8
:10390000200000F059FA4021200000F052FA012076
:1039100000F037F80121200000F041FA002801D022
:103920000A2014E00221200000F039FA002801D01A
:1039300000200CE00421200000F031FA002801D022
:103940000B2004E0012000F01CF85FF0FF3010BDF8
:1039500000100140E0B50121022000F06CF941F6B1
:103960001F40ADF802000020ADF806000920ADF8B8
:1039700000000020ADF804006946114800F0FCFA90
:1039800007BD70B504000E4E0121300000F003FBAE
:1039900000250AE00121300000F017FB0028F9D0D3
:1039A0000121300000F01AFB6D1C2800210080B2BC
:1039B00089B28842EED30021300000F0ECFA70BDED
:1039C0000004004080B500F035F85FF4803000F06E
:1039D00064F800F07EF8C0B2012824D1102000F075
:1039E0009EFB022000F092FB002000F0A7F80020D0
:1039F00000F0B4F84FF4806000F0A8F85FF4E01134
:103A00005FF4803000F080F8012000F086F8392063
:103A100000F01FF90028FAD0022000F082F800F030
:103A200088F80828FBD14FF440515FF0006000F0A7
:103A30003CFA01BD0020DFF8581208600020DFF8D2
:103A4000541208601420DFF8501208600020DFF8DC
:103A50004C1208600020DFF848120860DFF84412BA
:103A6000086850F001000860DFF83C221368DFF8B6
:103A70003C02034013600B68DFF8340203400B6024
:103A8000086830F480200860106830F4FE00106090
:103A90000020DFF8201208607047DFF808120A687B
:103AA00032F480320A600A6832F480220A60B0F58B
:103AB000803F03D0B0F5802F05D009E0086850F4AE
:103AC0008030086004E0086850F4A0200860FFE738
:103AD000704710B5DFF8E041312000F0BAF82070EF
:103AE000DFF8D8110868401C08602078002802D14F
:103AF0000868FF28EED1312000F0ABF8002801D093
:103B0000012000E0002010BD0022674B1A6832F44B
:103B10007C120843104318607047C0B268490860BF
:103B200070470021604A11688908890008431060C5
:103B300070475D48006810F00C00704700215A4A39
:103B4000116831F0F0010843106070470021564AB7
:103B5000116831F4E0610843106070470021524A57
:103B6000116831F4605151EAC0011160704710B41E
:103B700000210021002100214B4A116811F00C01A5
:103B8000002904D0042905D0082906D01EE04E499A
:103B900001601DE04C4901601AE0136813F47013D2
:103BA0009B0C9B1C116811F48031002903D14749FB
:103BB0004B43036009E01168890303D543494B4334
:103BC000036002E040494B43036001E03E4901606D
:103BD000116811F0F00109093D4B595C0468CC40B3
:103BE0004460116811F4E061090A595C4468CC40F2
:103BF0008460116811F46051C90A595C4368CB4074
:103C0000C360116811F44041890B324A515CC268AB
:103C1000B2FBF1F1016110BC7047C9B2002904D0B8
:103C20001E490A681043086004E01C490A6832EA29
:103C3000000008607047C9B2002904D018490A681A
:103C40001043086004E016490A6832EA0000086080
:103C500070470021002100210100C9B24909C9B201
:103C6000012902D10F49096806E0022902D115494C
:103C7000096801E018490968C0B210F01F00C1408E
:103C8000C80701D5012000E00020C0B27047000045
:103C90000C10024010100240141002401810024094
:103CA0001C10024000100240041002400000FFF807
:103CB000FFFFF6FE08100240AC080020A808002014
:103CC000600042422010024000127A0000093D00CC
:103CD000DC4300080C44000824100240F0B4002229
:103CE00000220022002200220022CB7813F00F03D2
:103CF000CA78D20601D58A7813430A78120621D0F1
:103D0000066800241AE0012717FA04F50A882A40F9
:103D1000AA4212D1A2000F259540AE4313FA02F237
:103D200032431600CA78282A02D117FA04F24261F7
:103D3000CA78482A01D1A7400761641C082CE2D345
:103D4000066000220A88B2F5807F26DB46680024E0
:103D500020E0012714F1080517FA05F50A882A4022
:103D6000AA4216D1A2000F259540AE4313FA02F2E3
:103D700032431600CA78282A04D114F1080217FA2F
:103D800002F24261CA78482A03D114F1080297402E
:103D90000761641C082CDCD34660F0BC704700222D
:103DA000806889B2084201D0012000E00020C0B242
:103DB000704789B20161704789B24161704710B4A0
:103DC00000220F2311F00302D2B2920013FA02F282
:103DD0000F4B0C00E4B2A41053F8244034EA020262
:103DE0000C00E4B2A41043F824200A00D2B29210CE
:103DF00053F82240C0B211F00302D2B292009040B8
:103E00002043C9B2891043F8210010BC704700005C
:103E10000800014030B400210021002100210F23BF
:103E2000C178002935D02749096811F4E061D1F53E
:103E3000E061090AD1F10402CB40417811FA02F2A3
:103E400081780B401A431201017811F00301C9B2C5
:103E5000C9008A40194C0178891054F82110FF25B7
:103E6000037813F00303DBB2DB0015FA03F3994385
:103E70001A400A430178891044F821200121027870
:103E800012F01F029140104A0078401142F82010B1
:103E900009E00121027812F01F029140064A0078E1
:103EA000401142F8201030BC7047084A11400843C6
:103EB000034908607047000080E100E000E400E092
:103EC00008ED00E00CED00E000E100E080FFFF1FE6
:103ED00030B48179002927D0234A017951180B6821
:103EE00001680B43017951180B60204B1C68016875
:103EF0008C431C601E4C256801688D432560417908
:103F0000102908D11A6801680A431A6021680068FC
:103F10000143216011E0417951180B6801680B439E
:103F200040791218136008E00F4A017951180B68A4
:103F300001688B4300791218136030BC7047002170
:103F400000210949096801400A4A1268024203D067
:103F5000002901D0012000E00020C0B270470549CF
:103F600008607047000000000004014008040140A0
:103F70000C040140140401400A8882854A880285A5
:103F8000028812F08F02028002888B88C9880B4356
:103F90001A4302807047C9B2002904D0018851F049
:103FA0000101018004E0028840F2FE310A400280F3
:103FB0007047D2B2002A03D082891143818103E085
:103FC000828932EA0101818170470022008A084219
:103FD00001D0012000E00020C0B27047028A32EA1E
:103FE000010101827047028A32EA010101827047B1
:103FF00030B585B004000D00002000200020002016
:10400000218A4CF2FF000140EA88E8890243288AAD
:104010000243688A0243A88A024311432182002096
:10402000A1894EF6F3100140AA8828890243A88985
:1040300002431143A1810020A18A4FF6FF400140B5
:1040400068890143A18200206846FFF790FD10486F
:10405000844201D1039900E0029919204143286864
:104060008000B1FBF0F26420B2FBF0F109010B001B
:104070001B09642000FB1322100132306422B0FBC4
:10408000F2F010F00F000143218105B030BD0000B7
:1040900000380140C9B2002904D0818951F400518F
:1040A000818104E082894DF6FF710A408281704768
:1040B000C905C90D818070478088C005C00D704753
:1040C00000220088084201D0012000E00020C0B298
:1040D000704730B4002513E050F8042BD30744BFD9
:1040E000A9F101039A18091F042942F8045BFAD2C6
:1040F00013468C0744BF15809B1CC90748BF1D7021
:1041000050F8041B0029E7D130BC704709490A6800
:1041100012F038020A600A681043086070470549C7
:104120000A6832F010020A600A681043086070479B
:1041300000000000002002407047FEE7FEE7FEE7B7
:10414000FEE7704770477047704770477047704789
:1041500070477047704780B50120FFF7F0FE0028D8
:1041600009D008212E48FFF7C3FA01202D49086025
:104170000120FFF7F4FE01BD70477047704770479C
:104180007047704770477047704770477047704777
:104190007047704770477047704770477047704767
:1041A000704780B501215FF08040FFF70EFF0128C6
:1041B00035D101215FF08040FFF715FF1A490868EB
:1041C000401E08600868012801DA002008600868BD
:1041D00000280DD115480268012A09DB0268521E29
:1041E00002600268012A01DA0022026009200860E8
:1041F0000868002813D10E4B186801280FDB0B4A02
:10420000106800280BD11868401E18601868012833
:1042100001DA00201860052010600920086001BD47
:1042200004440008A00800209C08002098080020F2
:104230009408002070477047704770477047704778
:1042400070477047704770477047704770477047B6
:10425000F0B40246106895681318506803EB5004D8
:10426000C0071CD54D441AE013F8017B05F8017B0B
:10427000491EF9D198B113F8011BC6F38106032E2C
:1042800008BF13F8016B01EB06214942801C294449
:1042900005D011F8016B05F8016B401EF9D1A3425E
:1042A0000ED013F8016B16F0030104BF13F8011BC5
:1042B000C91C30090F28DBD113F8010B0F30D7E7E9
:1042C000F0BC02F10C00704730BF704720BF704750
:1042D00040BF7047BFF36F8F7047BFF34F8F70477A
:1042E000BFF35F8F704701DF7047EFF314807047B3
:1042F00080F31488BFF36F8F7047EFF30980704726
:1043000080F309887047EFF30880704780F30888CE
:10431000704772B6704762B6704771B6704761B643
:10432000704780F311887047EFF31280704740BAEE
:10433000704700BA7047000010B50749794418313A
:10434000064C7C44163404E00A68081D1144884772
:104350000146A142F8D110BD080000002400000071
:1043600073FDFFFF3C010000740700200000000007
:10437000E1FEFFFF9C000000860600000000002018
:1043800000F00DF8002801D0FFF7D6FFAFF3008052
:104390000020AFF30080FEF7A9FE00F002F8012034
:1043A000704700F001B800000746384600F002F8F8
:1043B000FBE7000080B5AFF30080024A110018202F
:1043C000ABBEFBE72600020050726F6772616D475B
:1043D000616D6553746172740A0000000000000092
:1043E000010203040102030406070809547279203C
:1043F000616761696E210000AFF30080AFF3008058
:10440000FFF7BEFF414E535745520A00020406080B
:104410001013008000003F065B4F666D7C077F67CE
:10442000777C395E7971081410207261696E626F51
:10443000770057656C636F6D6520746F20547765E6
:104440006E74792D5175657374696F6E09300F69DB
:104450007A210A0000004865726520776520676F41
:104460000F101100596F75206661696C65642E200C
:104470007472792061674D111B10126B6E6F77207B
:1044800074686520616E73776572202F20736812DF
:10449000300268696E74383005436F7272656374F8
:1044A0004510024966207947200277616E747C408E
:1044B000076368616C6C656E67654D100D2C20702C
:1044C0006C656173652070726573732005101265E9
:1044D0007420627574746F6E2E0A005768617420C0
:1044E0006973208830017220416C223F54200A21D8
:1044F0005570446F776E2047616D6565100F50757C
:1045000074206E756D62657228307E3130302914EA
:1045100020044772617473213B332077B511012069
:104520000655500A00444F574E0D2002312E2049A7
:104530005DF0092C6E277420616C6976652E000190
:10454000523250100420756E746F75E7F32C626C54
:1045500053A233A024036E20656D6FACF129526223
:1045600034A0F0012F726172EC2101623550F00726
:104570002D62656175746966756C551806362E2056
:1045800047656E65721F180B792C2069742068616D
:1045900073206172635BF3226170B13237A02145F1
:1045A000F0072C72656420636F6C6F72A1723850D3
:1045B00040026D616E7951F22A735263392EE51C07
:1045C000026469666679036A6EC45001206F665F93
:1045D000155CF00B0B747765656E2063756C7475F4
:1045E000726570673130914F696E9C03F22C69F1EE
:1045F0004E312103100361707065618A2152100AE7
:104600006F70706F73697465207369640E3266151C
:10461000FB157375953E3121031227EF1E759A0322
:1046200019CB21AB1D3704F3257274A61E3121036B
:104630001E53D104780374696D6573311369745521
:1046400024016973744652720AF515A6B33134F029
:104650001D79041F6269C3032A208620032067692D
:104660006674F1F00117676F64AE4E3121031E636B
:10467000BC031B62653415321F617228032801696F
:104680006369E3F120F51E31210334065072696E2F
:104690006369706C7D21EB3E673203654E1C0265D9
:1046A00078706C540519EF1802666972730CF00487
:1046B000056E20313633376B2E31210335C31DF49F
:1046C00005113D6802276974273B1E7719064C01C6
:1046D00020736B88031C0277696C6C3504111B27EF
:1046E000616658FC03016120776869DC049E312112
:1046F00003126F5359C22E74C3051505176E6F51FF
:10470000192E29CEF8050D62792068756D61381E65
:104710003121032DBD0525412002616C736F3B41A2
:10472000A51002776974688634027069656309F4BC
:104730000310707269736D50A7323090318851EE5A
:1047400011E951DB21E6F40114696E679C0002FF58
:0347500000000F57
:04000005080043F9B3
:00000001FF
